{
  "_format": "hh-sol-artifact-1",
  "contractName": "TodoFactory",
  "sourceName": "contracts/TodoFactory.sol",
  "abi": [
    {
      "inputs": [],
      "stateMutability": "payable",
      "type": "constructor"
    },
    {
      "anonymous": false,
      "inputs": [
        {
          "indexed": false,
          "internalType": "string",
          "name": "title",
          "type": "string"
        },
        {
          "indexed": false,
          "internalType": "string",
          "name": "body",
          "type": "string"
        },
        {
          "indexed": false,
          "internalType": "uint256",
          "name": "poolAmount",
          "type": "uint256"
        },
        {
          "indexed": false,
          "internalType": "uint32",
          "name": "deadline",
          "type": "uint32"
        }
      ],
      "name": "NewTodo",
      "type": "event"
    },
    {
      "inputs": [
        {
          "internalType": "string",
          "name": "_title",
          "type": "string"
        },
        {
          "internalType": "string",
          "name": "_body",
          "type": "string"
        },
        {
          "internalType": "uint256",
          "name": "_poolAmount",
          "type": "uint256"
        },
        {
          "internalType": "uint32",
          "name": "_deadline",
          "type": "uint32"
        }
      ],
      "name": "createTodo",
      "outputs": [],
      "stateMutability": "nonpayable",
      "type": "function"
    },
    {
      "inputs": [],
      "name": "doneTodo",
      "outputs": [],
      "stateMutability": "view",
      "type": "function"
    },
    {
      "inputs": [],
      "name": "getAllTodos",
      "outputs": [
        {
          "components": [
            {
              "internalType": "address",
              "name": "creator",
              "type": "address"
            },
            {
              "internalType": "string",
              "name": "title",
              "type": "string"
            },
            {
              "internalType": "string",
              "name": "body",
              "type": "string"
            },
            {
              "internalType": "uint256",
              "name": "poolAmount",
              "type": "uint256"
            },
            {
              "internalType": "uint32",
              "name": "deadline",
              "type": "uint32"
            },
            {
              "internalType": "bool",
              "name": "done",
              "type": "bool"
            },
            {
              "internalType": "uint32",
              "name": "timestamp",
              "type": "uint32"
            }
          ],
          "internalType": "struct TodoFactory.Todo[]",
          "name": "",
          "type": "tuple[]"
        }
      ],
      "stateMutability": "view",
      "type": "function"
    }
  ],
  "bytecode": "0x60806040526200004f6040518060400160405280601d81526020017f546f646f466163746f7279202d20536d61727420436f6e7472616374210000008152506200005560201b620005bc1760201c565b620001e9565b620000f5816040516024016200006c9190620001c5565b6040516020818303038152906040527f41304fac000000000000000000000000000000000000000000000000000000007bffffffffffffffffffffffffffffffffffffffffffffffffffffffff19166020820180517bffffffffffffffffffffffffffffffffffffffffffffffffffffffff8381831617835250505050620000f860201b60201c565b50565b60008151905060006a636f6e736f6c652e6c6f679050602083016000808483855afa5050505050565b600081519050919050565b600082825260208201905092915050565b60005b838110156200015d57808201518184015260208101905062000140565b838111156200016d576000848401525b50505050565b6000601f19601f8301169050919050565b6000620001918262000121565b6200019d81856200012c565b9350620001af8185602086016200013d565b620001ba8162000173565b840191505092915050565b60006020820190508181036000830152620001e1818462000184565b905092915050565b61110880620001f96000396000f3fe608060405234801561001057600080fd5b50600436106100415760003560e01c80637e7f085614610046578063ce2bd5d514610062578063fb96ee2a14610080575b600080fd5b610060600480360381019061005b9190610b60565b61008a565b005b61006a610331565b6040516100779190610e66565b60405180910390f35b61008861057b565b005b6100ad6040518060600160405280602181526020016110b2602191393386610655565b6100ec6040518060400160405280600881526020017f626f64793a202573000000000000000000000000000000000000000000000000815250846106f4565b61012b6040518060400160405280600e81526020017f706f6f6c416d6f756e743a20257300000000000000000000000000000000000081525083610790565b6101706040518060400160405280600c81526020017f646561646c696e653a20257300000000000000000000000000000000000000008152508263ffffffff16610790565b60006040518060e001604052803373ffffffffffffffffffffffffffffffffffffffff1681526020018681526020018581526020018481526020018363ffffffff1681526020016000151581526020014263ffffffff16815250908060018154018082558091505060019003906000526020600020906005020160009091909190915060008201518160000160006101000a81548173ffffffffffffffffffffffffffffffffffffffff021916908373ffffffffffffffffffffffffffffffffffffffff16021790555060208201518160010190805190602001906102569291906108f1565b5060408201518160020190805190602001906102739291906108f1565b506060820151816003015560808201518160040160006101000a81548163ffffffff021916908363ffffffff16021790555060a08201518160040160046101000a81548160ff02191690831515021790555060c08201518160040160056101000a81548163ffffffff021916908363ffffffff16021790555050507f674a1dbbe02f048be6618017a6c861ea128a50a4bac07261d7e210e3b43e9e29848484846040516103239493929190610ef0565b60405180910390a150505050565b60606000805480602002602001604051908101604052809291908181526020016000905b8282101561057257838290600052602060002090600502016040518060e00160405290816000820160009054906101000a900473ffffffffffffffffffffffffffffffffffffffff1673ffffffffffffffffffffffffffffffffffffffff1673ffffffffffffffffffffffffffffffffffffffff1681526020016001820180546103de90610f72565b80601f016020809104026020016040519081016040528092919081815260200182805461040a90610f72565b80156104575780601f1061042c57610100808354040283529160200191610457565b820191906000526020600020905b81548152906001019060200180831161043a57829003601f168201915b5050505050815260200160028201805461047090610f72565b80601f016020809104026020016040519081016040528092919081815260200182805461049c90610f72565b80156104e95780601f106104be576101008083540402835291602001916104e9565b820191906000526020600020905b8154815290600101906020018083116104cc57829003601f168201915b50505050508152602001600382015481526020016004820160009054906101000a900463ffffffff1663ffffffff1663ffffffff1681526020016004820160049054906101000a900460ff161515151581526020016004820160059054906101000a900463ffffffff1663ffffffff1663ffffffff168152505081526020019060010190610355565b50505050905090565b6105ba6040518060400160405280600d81526020017f257320646f6e6520746f646f21000000000000000000000000000000000000008152503361082c565b565b610652816040516024016105d09190610fa4565b6040516020818303038152906040527f41304fac000000000000000000000000000000000000000000000000000000007bffffffffffffffffffffffffffffffffffffffffffffffffffffffff19166020820180517bffffffffffffffffffffffffffffffffffffffffffffffffffffffff83818316178352505050506108c8565b50565b6106ef83838360405160240161066d93929190610fd5565b6040516020818303038152906040527fe0e9ad4f000000000000000000000000000000000000000000000000000000007bffffffffffffffffffffffffffffffffffffffffffffffffffffffff19166020820180517bffffffffffffffffffffffffffffffffffffffffffffffffffffffff83818316178352505050506108c8565b505050565b61078c828260405160240161070a92919061101a565b6040516020818303038152906040527f4b5c4277000000000000000000000000000000000000000000000000000000007bffffffffffffffffffffffffffffffffffffffffffffffffffffffff19166020820180517bffffffffffffffffffffffffffffffffffffffffffffffffffffffff83818316178352505050506108c8565b5050565b61082882826040516024016107a6929190611051565b6040516020818303038152906040527fb60e72cc000000000000000000000000000000000000000000000000000000007bffffffffffffffffffffffffffffffffffffffffffffffffffffffff19166020820180517bffffffffffffffffffffffffffffffffffffffffffffffffffffffff83818316178352505050506108c8565b5050565b6108c48282604051602401610842929190611081565b6040516020818303038152906040527f319af333000000000000000000000000000000000000000000000000000000007bffffffffffffffffffffffffffffffffffffffffffffffffffffffff19166020820180517bffffffffffffffffffffffffffffffffffffffffffffffffffffffff83818316178352505050506108c8565b5050565b60008151905060006a636f6e736f6c652e6c6f679050602083016000808483855afa5050505050565b8280546108fd90610f72565b90600052602060002090601f01602090048101928261091f5760008555610966565b82601f1061093857805160ff1916838001178555610966565b82800160010185558215610966579182015b8281111561096557825182559160200191906001019061094a565b5b5090506109739190610977565b5090565b5b80821115610990576000816000905550600101610978565b5090565b6000604051905090565b600080fd5b600080fd5b600080fd5b600080fd5b6000601f19601f8301169050919050565b7f4e487b7100000000000000000000000000000000000000000000000000000000600052604160045260246000fd5b6109fb826109b2565b810181811067ffffffffffffffff82111715610a1a57610a196109c3565b5b80604052505050565b6000610a2d610994565b9050610a3982826109f2565b919050565b600067ffffffffffffffff821115610a5957610a586109c3565b5b610a62826109b2565b9050602081019050919050565b82818337600083830152505050565b6000610a91610a8c84610a3e565b610a23565b905082815260208101848484011115610aad57610aac6109ad565b5b610ab8848285610a6f565b509392505050565b600082601f830112610ad557610ad46109a8565b5b8135610ae5848260208601610a7e565b91505092915050565b6000819050919050565b610b0181610aee565b8114610b0c57600080fd5b50565b600081359050610b1e81610af8565b92915050565b600063ffffffff82169050919050565b610b3d81610b24565b8114610b4857600080fd5b50565b600081359050610b5a81610b34565b92915050565b60008060008060808587031215610b7a57610b7961099e565b5b600085013567ffffffffffffffff811115610b9857610b976109a3565b5b610ba487828801610ac0565b945050602085013567ffffffffffffffff811115610bc557610bc46109a3565b5b610bd187828801610ac0565b9350506040610be287828801610b0f565b9250506060610bf387828801610b4b565b91505092959194509250565b600081519050919050565b600082825260208201905092915050565b6000819050602082019050919050565b600073ffffffffffffffffffffffffffffffffffffffff82169050919050565b6000610c5682610c2b565b9050919050565b610c6681610c4b565b82525050565b600081519050919050565b600082825260208201905092915050565b60005b83811015610ca6578082015181840152602081019050610c8b565b83811115610cb5576000848401525b50505050565b6000610cc682610c6c565b610cd08185610c77565b9350610ce0818560208601610c88565b610ce9816109b2565b840191505092915050565b610cfd81610aee565b82525050565b610d0c81610b24565b82525050565b60008115159050919050565b610d2781610d12565b82525050565b600060e083016000830151610d456000860182610c5d565b5060208301518482036020860152610d5d8282610cbb565b91505060408301518482036040860152610d778282610cbb565b9150506060830151610d8c6060860182610cf4565b506080830151610d9f6080860182610d03565b5060a0830151610db260a0860182610d1e565b5060c0830151610dc560c0860182610d03565b508091505092915050565b6000610ddc8383610d2d565b905092915050565b6000602082019050919050565b6000610dfc82610bff565b610e068185610c0a565b935083602082028501610e1885610c1b565b8060005b85811015610e545784840389528151610e358582610dd0565b9450610e4083610de4565b925060208a01995050600181019050610e1c565b50829750879550505050505092915050565b60006020820190508181036000830152610e808184610df1565b905092915050565b600082825260208201905092915050565b6000610ea482610c6c565b610eae8185610e88565b9350610ebe818560208601610c88565b610ec7816109b2565b840191505092915050565b610edb81610aee565b82525050565b610eea81610b24565b82525050565b60006080820190508181036000830152610f0a8187610e99565b90508181036020830152610f1e8186610e99565b9050610f2d6040830185610ed2565b610f3a6060830184610ee1565b95945050505050565b7f4e487b7100000000000000000000000000000000000000000000000000000000600052602260045260246000fd5b60006002820490506001821680610f8a57607f821691505b60208210811415610f9e57610f9d610f43565b5b50919050565b60006020820190508181036000830152610fbe8184610e99565b905092915050565b610fcf81610c4b565b82525050565b60006060820190508181036000830152610fef8186610e99565b9050610ffe6020830185610fc6565b81810360408301526110108184610e99565b9050949350505050565b600060408201905081810360008301526110348185610e99565b905081810360208301526110488184610e99565b90509392505050565b6000604082019050818103600083015261106b8185610e99565b905061107a6020830184610ed2565b9392505050565b6000604082019050818103600083015261109b8185610e99565b90506110aa6020830184610fc6565b939250505056fe25732063726561746520746f646f20772f2077697468200a7469746c653a202573a26469706673582212200dcd5ca32614f847d94b41d0aaa77ec340565fae43e9351e30993c39e95b047c64736f6c63430008090033",
  "linkReferences": {},
  "deployedLinkReferences": {}
}