{
  "_format": "hh-sol-artifact-1",
  "contractName": "TodoFactory",
  "sourceName": "contracts/TodoFactory.sol",
  "abi": [
    {
      "anonymous": false,
      "inputs": [
        {
          "indexed": false,
          "internalType": "uint256",
          "name": "id",
          "type": "uint256"
        },
        {
          "indexed": false,
          "internalType": "string",
          "name": "title",
          "type": "string"
        },
        {
          "indexed": false,
          "internalType": "string",
          "name": "body",
          "type": "string"
        },
        {
          "indexed": false,
          "internalType": "uint256",
          "name": "amount",
          "type": "uint256"
        },
        {
          "indexed": false,
          "internalType": "uint32",
          "name": "deadline",
          "type": "uint32"
        },
        {
          "indexed": false,
          "internalType": "bool",
          "name": "isDone",
          "type": "bool"
        }
      ],
      "name": "NewTodo",
      "type": "event"
    },
    {
      "inputs": [
        {
          "internalType": "string",
          "name": "_title",
          "type": "string"
        },
        {
          "internalType": "string",
          "name": "_body",
          "type": "string"
        },
        {
          "internalType": "uint256",
          "name": "_amount",
          "type": "uint256"
        },
        {
          "internalType": "uint32",
          "name": "_deadline",
          "type": "uint32"
        }
      ],
      "name": "createTodo",
      "outputs": [],
      "stateMutability": "nonpayable",
      "type": "function"
    },
    {
      "inputs": [],
      "name": "deposit",
      "outputs": [],
      "stateMutability": "payable",
      "type": "function"
    },
    {
      "inputs": [
        {
          "internalType": "uint256",
          "name": "_id",
          "type": "uint256"
        }
      ],
      "name": "doneTodo",
      "outputs": [],
      "stateMutability": "nonpayable",
      "type": "function"
    },
    {
      "inputs": [],
      "name": "getAllTodos",
      "outputs": [
        {
          "components": [
            {
              "internalType": "uint256",
              "name": "id",
              "type": "uint256"
            },
            {
              "internalType": "address",
              "name": "owner",
              "type": "address"
            },
            {
              "internalType": "string",
              "name": "title",
              "type": "string"
            },
            {
              "internalType": "string",
              "name": "body",
              "type": "string"
            },
            {
              "internalType": "uint256",
              "name": "amount",
              "type": "uint256"
            },
            {
              "internalType": "uint32",
              "name": "deadline",
              "type": "uint32"
            },
            {
              "internalType": "bool",
              "name": "isDone",
              "type": "bool"
            }
          ],
          "internalType": "struct TodoFactory.Todo[]",
          "name": "",
          "type": "tuple[]"
        }
      ],
      "stateMutability": "view",
      "type": "function"
    },
    {
      "inputs": [],
      "name": "getBalance",
      "outputs": [
        {
          "internalType": "uint256",
          "name": "",
          "type": "uint256"
        }
      ],
      "stateMutability": "view",
      "type": "function"
    },
    {
      "inputs": [],
      "name": "getOwnerTodos",
      "outputs": [
        {
          "components": [
            {
              "internalType": "uint256",
              "name": "id",
              "type": "uint256"
            },
            {
              "internalType": "address",
              "name": "owner",
              "type": "address"
            },
            {
              "internalType": "string",
              "name": "title",
              "type": "string"
            },
            {
              "internalType": "string",
              "name": "body",
              "type": "string"
            },
            {
              "internalType": "uint256",
              "name": "amount",
              "type": "uint256"
            },
            {
              "internalType": "uint32",
              "name": "deadline",
              "type": "uint32"
            },
            {
              "internalType": "bool",
              "name": "isDone",
              "type": "bool"
            }
          ],
          "internalType": "struct TodoFactory.Todo[]",
          "name": "",
          "type": "tuple[]"
        }
      ],
      "stateMutability": "view",
      "type": "function"
    }
  ],
  "bytecode": "0x608060405234801561001057600080fd5b50336000806101000a81548173ffffffffffffffffffffffffffffffffffffffff021916908373ffffffffffffffffffffffffffffffffffffffff1602179055506119ae806100606000396000f3fe6080604052600436106100555760003560e01c806312065fe01461005a57806339577952146100855780637e7f0856146100ae578063ce2bd5d5146100d7578063cfdcc37914610102578063d0e30db01461012d575b600080fd5b34801561006657600080fd5b5061006f610137565b60405161007c9190610ffe565b60405180910390f35b34801561009157600080fd5b506100ac60048036038101906100a79190611059565b61017e565b005b3480156100ba57600080fd5b506100d560048036038101906100d09190611208565b6104ed565b005b3480156100e357600080fd5b506100ec61070d565b6040516100f9919061150e565b60405180910390f35b34801561010e57600080fd5b5061011761093b565b604051610124919061150e565b60405180910390f35b610135610cc8565b005b6000600360003373ffffffffffffffffffffffffffffffffffffffff1673ffffffffffffffffffffffffffffffffffffffff16815260200190815260200160002054905090565b60006001808361018e919061155f565b8154811061019f5761019e611593565b5b90600052602060002090600602016040518060e0016040529081600082015481526020016001820160009054906101000a900473ffffffffffffffffffffffffffffffffffffffff1673ffffffffffffffffffffffffffffffffffffffff1673ffffffffffffffffffffffffffffffffffffffff168152602001600282018054610228906115f1565b80601f0160208091040260200160405190810160405280929190818152602001828054610254906115f1565b80156102a15780601f10610276576101008083540402835291602001916102a1565b820191906000526020600020905b81548152906001019060200180831161028457829003601f168201915b505050505081526020016003820180546102ba906115f1565b80601f01602080910402602001604051908101604052809291908181526020018280546102e6906115f1565b80156103335780601f1061030857610100808354040283529160200191610333565b820191906000526020600020905b81548152906001019060200180831161031657829003601f168201915b50505050508152602001600482015481526020016005820160009054906101000a900463ffffffff1663ffffffff1663ffffffff1681526020016005820160049054906101000a900460ff16151515158152505090503373ffffffffffffffffffffffffffffffffffffffff16816020015173ffffffffffffffffffffffffffffffffffffffff16146103fb576040517f08c379a00000000000000000000000000000000000000000000000000000000081526004016103f290611680565b60405180910390fd5b600015158160c00151151514610446576040517f08c379a000000000000000000000000000000000000000000000000000000000815260040161043d906116ec565b60405180910390fd5b428160a0015163ffffffff161015610493576040517f08c379a000000000000000000000000000000000000000000000000000000000815260040161048a90611758565b60405180910390fd5b6104a08160800151610d20565b6001806001846104b0919061155f565b815481106104c1576104c0611593565b5b906000526020600020906006020160050160046101000a81548160ff0219169083151502179055505050565b6000600180805490506105009190611778565b9050600060016040518060e001604052808481526020013373ffffffffffffffffffffffffffffffffffffffff1681526020018881526020018781526020018681526020018563ffffffff16815260200183151581525090806001815401808255809150506001900390600052602060002090600602016000909190919091506000820151816000015560208201518160010160006101000a81548173ffffffffffffffffffffffffffffffffffffffff021916908373ffffffffffffffffffffffffffffffffffffffff16021790555060408201518160020190805190602001906105ed929190610ee7565b50606082015181600301908051906020019061060a929190610ee7565b506080820151816004015560a08201518160050160006101000a81548163ffffffff021916908363ffffffff16021790555060c08201518160050160046101000a81548160ff0219169083151502179055505050600260003373ffffffffffffffffffffffffffffffffffffffff1673ffffffffffffffffffffffffffffffffffffffff1681526020019081526020016000208290806001815401808255809150506001900390600052602060002001600090919091909150557f3afde4025da733b47ad7b6a9af40a95d9a7cd7d78a753e729f8902f8db607db88287878787866040516106fd96959493929190611825565b60405180910390a1505050505050565b60606001805480602002602001604051908101604052809291908181526020016000905b8282101561093257838290600052602060002090600602016040518060e0016040529081600082015481526020016001820160009054906101000a900473ffffffffffffffffffffffffffffffffffffffff1673ffffffffffffffffffffffffffffffffffffffff1673ffffffffffffffffffffffffffffffffffffffff1681526020016002820180546107c4906115f1565b80601f01602080910402602001604051908101604052809291908181526020018280546107f0906115f1565b801561083d5780601f106108125761010080835404028352916020019161083d565b820191906000526020600020905b81548152906001019060200180831161082057829003601f168201915b50505050508152602001600382018054610856906115f1565b80601f0160208091040260200160405190810160405280929190818152602001828054610882906115f1565b80156108cf5780601f106108a4576101008083540402835291602001916108cf565b820191906000526020600020905b8154815290600101906020018083116108b257829003601f168201915b50505050508152602001600482015481526020016005820160009054906101000a900463ffffffff1663ffffffff1663ffffffff1681526020016005820160049054906101000a900460ff16151515158152505081526020019060010190610731565b50505050905090565b60606000600260003373ffffffffffffffffffffffffffffffffffffffff1673ffffffffffffffffffffffffffffffffffffffff1681526020019081526020016000208054806020026020016040519081016040528092919081815260200182805480156109c857602002820191906000526020600020905b8154815260200190600101908083116109b4575b505050505090506000815167ffffffffffffffff8111156109ec576109eb6110a1565b5b604051908082528060200260200182016040528015610a2557816020015b610a12610f6d565b815260200190600190039081610a0a5790505b5090506000805b8351811015610cbe576000848281518110610a4a57610a49611593565b5b602002602001015114610cab576000848281518110610a6c57610a6b611593565b5b6020026020010151905060018082610a84919061155f565b81548110610a9557610a94611593565b5b90600052602060002090600602016040518060e0016040529081600082015481526020016001820160009054906101000a900473ffffffffffffffffffffffffffffffffffffffff1673ffffffffffffffffffffffffffffffffffffffff1673ffffffffffffffffffffffffffffffffffffffff168152602001600282018054610b1e906115f1565b80601f0160208091040260200160405190810160405280929190818152602001828054610b4a906115f1565b8015610b975780601f10610b6c57610100808354040283529160200191610b97565b820191906000526020600020905b815481529060010190602001808311610b7a57829003601f168201915b50505050508152602001600382018054610bb0906115f1565b80601f0160208091040260200160405190810160405280929190818152602001828054610bdc906115f1565b8015610c295780601f10610bfe57610100808354040283529160200191610c29565b820191906000526020600020905b815481529060010190602001808311610c0c57829003601f168201915b50505050508152602001600482015481526020016005820160009054906101000a900463ffffffff1663ffffffff1663ffffffff1681526020016005820160049054906101000a900460ff161515151581525050848381518110610c9057610c8f611593565b5b60200260200101819052508280610ca690611894565b935050505b8080610cb690611894565b915050610a2c565b5081935050505090565b34600360003373ffffffffffffffffffffffffffffffffffffffff1673ffffffffffffffffffffffffffffffffffffffff1681526020019081526020016000206000828254610d179190611778565b92505081905550565b80600360003373ffffffffffffffffffffffffffffffffffffffff1673ffffffffffffffffffffffffffffffffffffffff168152602001908152602001600020541015610da2576040517f08c379a0000000000000000000000000000000000000000000000000000000008152600401610d9990611929565b60405180910390fd5b6000600360003373ffffffffffffffffffffffffffffffffffffffff1673ffffffffffffffffffffffffffffffffffffffff16815260200190815260200160002054905081600360003373ffffffffffffffffffffffffffffffffffffffff1673ffffffffffffffffffffffffffffffffffffffff1681526020019081526020016000206000828254610e35919061155f565b925050819055503373ffffffffffffffffffffffffffffffffffffffff166108fc839081150290604051600060405180830381858888f19350505050158015610e82573d6000803e3d6000fd5b506000600360003373ffffffffffffffffffffffffffffffffffffffff1673ffffffffffffffffffffffffffffffffffffffff1681526020019081526020016000205490508282610ed3919061155f565b8114610ee257610ee1611949565b5b505050565b828054610ef3906115f1565b90600052602060002090601f016020900481019282610f155760008555610f5c565b82601f10610f2e57805160ff1916838001178555610f5c565b82800160010185558215610f5c579182015b82811115610f5b578251825591602001919060010190610f40565b5b509050610f699190610fc8565b5090565b6040518060e0016040528060008152602001600073ffffffffffffffffffffffffffffffffffffffff168152602001606081526020016060815260200160008152602001600063ffffffff1681526020016000151581525090565b5b80821115610fe1576000816000905550600101610fc9565b5090565b6000819050919050565b610ff881610fe5565b82525050565b60006020820190506110136000830184610fef565b92915050565b6000604051905090565b600080fd5b600080fd5b61103681610fe5565b811461104157600080fd5b50565b6000813590506110538161102d565b92915050565b60006020828403121561106f5761106e611023565b5b600061107d84828501611044565b91505092915050565b600080fd5b600080fd5b6000601f19601f8301169050919050565b7f4e487b7100000000000000000000000000000000000000000000000000000000600052604160045260246000fd5b6110d982611090565b810181811067ffffffffffffffff821117156110f8576110f76110a1565b5b80604052505050565b600061110b611019565b905061111782826110d0565b919050565b600067ffffffffffffffff821115611137576111366110a1565b5b61114082611090565b9050602081019050919050565b82818337600083830152505050565b600061116f61116a8461111c565b611101565b90508281526020810184848401111561118b5761118a61108b565b5b61119684828561114d565b509392505050565b600082601f8301126111b3576111b2611086565b5b81356111c384826020860161115c565b91505092915050565b600063ffffffff82169050919050565b6111e5816111cc565b81146111f057600080fd5b50565b600081359050611202816111dc565b92915050565b6000806000806080858703121561122257611221611023565b5b600085013567ffffffffffffffff8111156112405761123f611028565b5b61124c8782880161119e565b945050602085013567ffffffffffffffff81111561126d5761126c611028565b5b6112798782880161119e565b935050604061128a87828801611044565b925050606061129b878288016111f3565b91505092959194509250565b600081519050919050565b600082825260208201905092915050565b6000819050602082019050919050565b6112dc81610fe5565b82525050565b600073ffffffffffffffffffffffffffffffffffffffff82169050919050565b600061130d826112e2565b9050919050565b61131d81611302565b82525050565b600081519050919050565b600082825260208201905092915050565b60005b8381101561135d578082015181840152602081019050611342565b8381111561136c576000848401525b50505050565b600061137d82611323565b611387818561132e565b935061139781856020860161133f565b6113a081611090565b840191505092915050565b6113b4816111cc565b82525050565b60008115159050919050565b6113cf816113ba565b82525050565b600060e0830160008301516113ed60008601826112d3565b5060208301516114006020860182611314565b50604083015184820360408601526114188282611372565b915050606083015184820360608601526114328282611372565b915050608083015161144760808601826112d3565b5060a083015161145a60a08601826113ab565b5060c083015161146d60c08601826113c6565b508091505092915050565b600061148483836113d5565b905092915050565b6000602082019050919050565b60006114a4826112a7565b6114ae81856112b2565b9350836020820285016114c0856112c3565b8060005b858110156114fc57848403895281516114dd8582611478565b94506114e88361148c565b925060208a019950506001810190506114c4565b50829750879550505050505092915050565b600060208201905081810360008301526115288184611499565b905092915050565b7f4e487b7100000000000000000000000000000000000000000000000000000000600052601160045260246000fd5b600061156a82610fe5565b915061157583610fe5565b92508282101561158857611587611530565b5b828203905092915050565b7f4e487b7100000000000000000000000000000000000000000000000000000000600052603260045260246000fd5b7f4e487b7100000000000000000000000000000000000000000000000000000000600052602260045260246000fd5b6000600282049050600182168061160957607f821691505b6020821081141561161d5761161c6115c2565b5b50919050565b600082825260208201905092915050565b7f446f6e27742068617665207468697320746f646f000000000000000000000000600082015250565b600061166a601483611623565b915061167582611634565b602082019050919050565b600060208201905081810360008301526116998161165d565b9050919050565b7f416c726561647920646f6e650000000000000000000000000000000000000000600082015250565b60006116d6600c83611623565b91506116e1826116a0565b602082019050919050565b60006020820190508181036000830152611705816116c9565b9050919050565b7f446561646c696e65206861732070617373656400000000000000000000000000600082015250565b6000611742601383611623565b915061174d8261170c565b602082019050919050565b6000602082019050818103600083015261177181611735565b9050919050565b600061178382610fe5565b915061178e83610fe5565b9250827fffffffffffffffffffffffffffffffffffffffffffffffffffffffffffffffff038211156117c3576117c2611530565b5b828201905092915050565b60006117d982611323565b6117e38185611623565b93506117f381856020860161133f565b6117fc81611090565b840191505092915050565b611810816111cc565b82525050565b61181f816113ba565b82525050565b600060c08201905061183a6000830189610fef565b818103602083015261184c81886117ce565b9050818103604083015261186081876117ce565b905061186f6060830186610fef565b61187c6080830185611807565b61188960a0830184611816565b979650505050505050565b600061189f82610fe5565b91507fffffffffffffffffffffffffffffffffffffffffffffffffffffffffffffffff8214156118d2576118d1611530565b5b600182019050919050565b7f496e73756666696369656e742062616c616e6365000000000000000000000000600082015250565b6000611913601483611623565b915061191e826118dd565b602082019050919050565b6000602082019050818103600083015261194281611906565b9050919050565b7f4e487b7100000000000000000000000000000000000000000000000000000000600052600160045260246000fdfea2646970667358221220d81787301fd6245b0d3e4d4b9fc74ba8399211dd4d663dfc8cb3de41e4ea399864736f6c63430008090033",
  "linkReferences": {},
  "deployedLinkReferences": {}
}