{
  "_format": "hh-sol-artifact-1",
  "contractName": "TodoFactory",
  "sourceName": "contracts/TodoFactory.sol",
  "abi": [
    {
      "inputs": [],
      "stateMutability": "nonpayable",
      "type": "constructor"
    },
    {
      "anonymous": false,
      "inputs": [
        {
          "indexed": true,
          "internalType": "address",
          "name": "from",
          "type": "address"
        },
        {
          "indexed": false,
          "internalType": "uint256",
          "name": "timestamp",
          "type": "uint256"
        },
        {
          "indexed": false,
          "internalType": "string",
          "name": "title",
          "type": "string"
        },
        {
          "indexed": false,
          "internalType": "string",
          "name": "body",
          "type": "string"
        },
        {
          "indexed": false,
          "internalType": "uint256",
          "name": "amount",
          "type": "uint256"
        }
      ],
      "name": "NewTodo",
      "type": "event"
    },
    {
      "inputs": [
        {
          "internalType": "string",
          "name": "_title",
          "type": "string"
        },
        {
          "internalType": "string",
          "name": "_body",
          "type": "string"
        },
        {
          "internalType": "uint256",
          "name": "_amount",
          "type": "uint256"
        }
      ],
      "name": "createTodo",
      "outputs": [],
      "stateMutability": "nonpayable",
      "type": "function"
    },
    {
      "inputs": [],
      "name": "deleteTodo",
      "outputs": [],
      "stateMutability": "nonpayable",
      "type": "function"
    },
    {
      "inputs": [],
      "name": "getAllTodos",
      "outputs": [
        {
          "components": [
            {
              "internalType": "address",
              "name": "creator",
              "type": "address"
            },
            {
              "internalType": "uint256",
              "name": "timestamp",
              "type": "uint256"
            },
            {
              "internalType": "string",
              "name": "title",
              "type": "string"
            },
            {
              "internalType": "string",
              "name": "body",
              "type": "string"
            },
            {
              "internalType": "uint256",
              "name": "amount",
              "type": "uint256"
            }
          ],
          "internalType": "struct TodoFactory.Todo[]",
          "name": "",
          "type": "tuple[]"
        }
      ],
      "stateMutability": "view",
      "type": "function"
    },
    {
      "inputs": [],
      "name": "getTotalTodos",
      "outputs": [
        {
          "internalType": "uint256",
          "name": "",
          "type": "uint256"
        }
      ],
      "stateMutability": "view",
      "type": "function"
    }
  ],
  "bytecode": "0x60806040523480156200001157600080fd5b506200005d6040518060400160405280601d81526020017f546f646f466163746f7279202d20536d61727420436f6e7472616374210000008152506200006360201b620003c21760201c565b620001f7565b62000103816040516024016200007a9190620001d3565b6040516020818303038152906040527f41304fac000000000000000000000000000000000000000000000000000000007bffffffffffffffffffffffffffffffffffffffffffffffffffffffff19166020820180517bffffffffffffffffffffffffffffffffffffffffffffffffffffffff83818316178352505050506200010660201b60201c565b50565b60008151905060006a636f6e736f6c652e6c6f679050602083016000808483855afa5050505050565b600081519050919050565b600082825260208201905092915050565b60005b838110156200016b5780820151818401526020810190506200014e565b838111156200017b576000848401525b50505050565b6000601f19601f8301169050919050565b60006200019f826200012f565b620001ab81856200013a565b9350620001bd8185602086016200014b565b620001c88162000181565b840191505092915050565b60006020820190508181036000830152620001ef818462000192565b905092915050565b610e3d80620002076000396000f3fe608060405234801561001057600080fd5b506004361061004c5760003560e01c80631b928946146100515780633c42ea3b1461006f578063ce2bd5d51461008b578063f11fe10a146100a9575b600080fd5b6100596100b3565b6040516100669190610710565b60405180910390f35b610089600480360381019061008491906108b1565b6100bc565b005b61009361017b565b6040516100a09190610b53565b60405180910390f35b6100b1610368565b005b60008054905090565b60016000808282546100ce9190610ba4565b925050819055506100f8604051806060016040528060218152602001610de760219139338561045b565b6101376040518060400160405280600881526020017f626f64793a202573000000000000000000000000000000000000000000000000815250836104fa565b6101766040518060400160405280600a81526020017f616d6f756e743a2025730000000000000000000000000000000000000000000081525082610596565b505050565b60606001805480602002602001604051908101604052809291908181526020016000905b8282101561035f57838290600052602060002090600502016040518060a00160405290816000820160009054906101000a900473ffffffffffffffffffffffffffffffffffffffff1673ffffffffffffffffffffffffffffffffffffffff1673ffffffffffffffffffffffffffffffffffffffff1681526020016001820154815260200160028201805461023290610c29565b80601f016020809104026020016040519081016040528092919081815260200182805461025e90610c29565b80156102ab5780601f10610280576101008083540402835291602001916102ab565b820191906000526020600020905b81548152906001019060200180831161028e57829003601f168201915b505050505081526020016003820180546102c490610c29565b80601f01602080910402602001604051908101604052809291908181526020018280546102f090610c29565b801561033d5780601f106103125761010080835404028352916020019161033d565b820191906000526020600020905b81548152906001019060200180831161032057829003601f168201915b505050505081526020016004820154815250508152602001906001019061019f565b50505050905090565b600160008082825461037a9190610c5b565b925050819055506103c06040518060400160405280600f81526020017f25732064656c65746520746f646f21000000000000000000000000000000000081525033610632565b565b610458816040516024016103d69190610cd9565b6040516020818303038152906040527f41304fac000000000000000000000000000000000000000000000000000000007bffffffffffffffffffffffffffffffffffffffffffffffffffffffff19166020820180517bffffffffffffffffffffffffffffffffffffffffffffffffffffffff83818316178352505050506106ce565b50565b6104f583838360405160240161047393929190610d0a565b6040516020818303038152906040527fe0e9ad4f000000000000000000000000000000000000000000000000000000007bffffffffffffffffffffffffffffffffffffffffffffffffffffffff19166020820180517bffffffffffffffffffffffffffffffffffffffffffffffffffffffff83818316178352505050506106ce565b505050565b6105928282604051602401610510929190610d4f565b6040516020818303038152906040527f4b5c4277000000000000000000000000000000000000000000000000000000007bffffffffffffffffffffffffffffffffffffffffffffffffffffffff19166020820180517bffffffffffffffffffffffffffffffffffffffffffffffffffffffff83818316178352505050506106ce565b5050565b61062e82826040516024016105ac929190610d86565b6040516020818303038152906040527fb60e72cc000000000000000000000000000000000000000000000000000000007bffffffffffffffffffffffffffffffffffffffffffffffffffffffff19166020820180517bffffffffffffffffffffffffffffffffffffffffffffffffffffffff83818316178352505050506106ce565b5050565b6106ca8282604051602401610648929190610db6565b6040516020818303038152906040527f319af333000000000000000000000000000000000000000000000000000000007bffffffffffffffffffffffffffffffffffffffffffffffffffffffff19166020820180517bffffffffffffffffffffffffffffffffffffffffffffffffffffffff83818316178352505050506106ce565b5050565b60008151905060006a636f6e736f6c652e6c6f679050602083016000808483855afa5050505050565b6000819050919050565b61070a816106f7565b82525050565b60006020820190506107256000830184610701565b92915050565b6000604051905090565b600080fd5b600080fd5b600080fd5b600080fd5b6000601f19601f8301169050919050565b7f4e487b7100000000000000000000000000000000000000000000000000000000600052604160045260246000fd5b61079282610749565b810181811067ffffffffffffffff821117156107b1576107b061075a565b5b80604052505050565b60006107c461072b565b90506107d08282610789565b919050565b600067ffffffffffffffff8211156107f0576107ef61075a565b5b6107f982610749565b9050602081019050919050565b82818337600083830152505050565b6000610828610823846107d5565b6107ba565b90508281526020810184848401111561084457610843610744565b5b61084f848285610806565b509392505050565b600082601f83011261086c5761086b61073f565b5b813561087c848260208601610815565b91505092915050565b61088e816106f7565b811461089957600080fd5b50565b6000813590506108ab81610885565b92915050565b6000806000606084860312156108ca576108c9610735565b5b600084013567ffffffffffffffff8111156108e8576108e761073a565b5b6108f486828701610857565b935050602084013567ffffffffffffffff8111156109155761091461073a565b5b61092186828701610857565b92505060406109328682870161089c565b9150509250925092565b600081519050919050565b600082825260208201905092915050565b6000819050602082019050919050565b600073ffffffffffffffffffffffffffffffffffffffff82169050919050565b600061099382610968565b9050919050565b6109a381610988565b82525050565b6109b2816106f7565b82525050565b600081519050919050565b600082825260208201905092915050565b60005b838110156109f25780820151818401526020810190506109d7565b83811115610a01576000848401525b50505050565b6000610a12826109b8565b610a1c81856109c3565b9350610a2c8185602086016109d4565b610a3581610749565b840191505092915050565b600060a083016000830151610a58600086018261099a565b506020830151610a6b60208601826109a9565b5060408301518482036040860152610a838282610a07565b91505060608301518482036060860152610a9d8282610a07565b9150506080830151610ab260808601826109a9565b508091505092915050565b6000610ac98383610a40565b905092915050565b6000602082019050919050565b6000610ae98261093c565b610af38185610947565b935083602082028501610b0585610958565b8060005b85811015610b415784840389528151610b228582610abd565b9450610b2d83610ad1565b925060208a01995050600181019050610b09565b50829750879550505050505092915050565b60006020820190508181036000830152610b6d8184610ade565b905092915050565b7f4e487b7100000000000000000000000000000000000000000000000000000000600052601160045260246000fd5b6000610baf826106f7565b9150610bba836106f7565b9250827fffffffffffffffffffffffffffffffffffffffffffffffffffffffffffffffff03821115610bef57610bee610b75565b5b828201905092915050565b7f4e487b7100000000000000000000000000000000000000000000000000000000600052602260045260246000fd5b60006002820490506001821680610c4157607f821691505b60208210811415610c5557610c54610bfa565b5b50919050565b6000610c66826106f7565b9150610c71836106f7565b925082821015610c8457610c83610b75565b5b828203905092915050565b600082825260208201905092915050565b6000610cab826109b8565b610cb58185610c8f565b9350610cc58185602086016109d4565b610cce81610749565b840191505092915050565b60006020820190508181036000830152610cf38184610ca0565b905092915050565b610d0481610988565b82525050565b60006060820190508181036000830152610d248186610ca0565b9050610d336020830185610cfb565b8181036040830152610d458184610ca0565b9050949350505050565b60006040820190508181036000830152610d698185610ca0565b90508181036020830152610d7d8184610ca0565b90509392505050565b60006040820190508181036000830152610da08185610ca0565b9050610daf6020830184610701565b9392505050565b60006040820190508181036000830152610dd08185610ca0565b9050610ddf6020830184610cfb565b939250505056fe25732063726561746520746f646f20772f2077697468200a7469746c653a202573a2646970667358221220a05a94b7ae1cbecc808241b67777b3f28e8e59d7540f1b4f8acc5e72999e8e3a64736f6c63430008090033",
  "linkReferences": {},
  "deployedLinkReferences": {}
}