{
  "_format": "hh-sol-artifact-1",
  "contractName": "TodoFactory",
  "sourceName": "contracts/TodoFactory.sol",
  "abi": [
    {
      "anonymous": false,
      "inputs": [
        {
          "indexed": false,
          "internalType": "uint256",
          "name": "id",
          "type": "uint256"
        },
        {
          "indexed": false,
          "internalType": "string",
          "name": "title",
          "type": "string"
        },
        {
          "indexed": false,
          "internalType": "string",
          "name": "body",
          "type": "string"
        },
        {
          "indexed": false,
          "internalType": "uint256",
          "name": "amount",
          "type": "uint256"
        },
        {
          "indexed": false,
          "internalType": "uint32",
          "name": "deadline",
          "type": "uint32"
        },
        {
          "indexed": false,
          "internalType": "bool",
          "name": "isDone",
          "type": "bool"
        }
      ],
      "name": "NewTodo",
      "type": "event"
    },
    {
      "inputs": [
        {
          "internalType": "string",
          "name": "_title",
          "type": "string"
        },
        {
          "internalType": "string",
          "name": "_body",
          "type": "string"
        },
        {
          "internalType": "uint256",
          "name": "_amount",
          "type": "uint256"
        },
        {
          "internalType": "uint32",
          "name": "_deadline",
          "type": "uint32"
        }
      ],
      "name": "createTodo",
      "outputs": [],
      "stateMutability": "nonpayable",
      "type": "function"
    },
    {
      "inputs": [],
      "name": "deposit",
      "outputs": [],
      "stateMutability": "payable",
      "type": "function"
    },
    {
      "inputs": [
        {
          "internalType": "uint256",
          "name": "_id",
          "type": "uint256"
        }
      ],
      "name": "doneTodo",
      "outputs": [],
      "stateMutability": "nonpayable",
      "type": "function"
    },
    {
      "inputs": [],
      "name": "getAllTodos",
      "outputs": [
        {
          "components": [
            {
              "internalType": "uint256",
              "name": "id",
              "type": "uint256"
            },
            {
              "internalType": "address",
              "name": "owner",
              "type": "address"
            },
            {
              "internalType": "string",
              "name": "title",
              "type": "string"
            },
            {
              "internalType": "string",
              "name": "body",
              "type": "string"
            },
            {
              "internalType": "uint256",
              "name": "amount",
              "type": "uint256"
            },
            {
              "internalType": "uint32",
              "name": "deadline",
              "type": "uint32"
            },
            {
              "internalType": "bool",
              "name": "isDone",
              "type": "bool"
            }
          ],
          "internalType": "struct TodoFactory.Todo[]",
          "name": "",
          "type": "tuple[]"
        }
      ],
      "stateMutability": "view",
      "type": "function"
    },
    {
      "inputs": [],
      "name": "getBalance",
      "outputs": [
        {
          "internalType": "uint256",
          "name": "",
          "type": "uint256"
        }
      ],
      "stateMutability": "view",
      "type": "function"
    },
    {
      "inputs": [],
      "name": "getOwnerTodos",
      "outputs": [
        {
          "components": [
            {
              "internalType": "uint256",
              "name": "id",
              "type": "uint256"
            },
            {
              "internalType": "address",
              "name": "owner",
              "type": "address"
            },
            {
              "internalType": "string",
              "name": "title",
              "type": "string"
            },
            {
              "internalType": "string",
              "name": "body",
              "type": "string"
            },
            {
              "internalType": "uint256",
              "name": "amount",
              "type": "uint256"
            },
            {
              "internalType": "uint32",
              "name": "deadline",
              "type": "uint32"
            },
            {
              "internalType": "bool",
              "name": "isDone",
              "type": "bool"
            }
          ],
          "internalType": "struct TodoFactory.Todo[]",
          "name": "",
          "type": "tuple[]"
        }
      ],
      "stateMutability": "view",
      "type": "function"
    }
  ],
  "bytecode": "0x608060405234801561001057600080fd5b50336000806101000a81548173ffffffffffffffffffffffffffffffffffffffff021916908373ffffffffffffffffffffffffffffffffffffffff160217905550611bc4806100606000396000f3fe6080604052600436106100555760003560e01c806312065fe01461005a57806339577952146100855780637e7f0856146100ae578063ce2bd5d5146100d7578063cfdcc37914610102578063d0e30db01461012d575b600080fd5b34801561006657600080fd5b5061006f610137565b60405161007c91906111a8565b60405180910390f35b34801561009157600080fd5b506100ac60048036038101906100a79190611203565b61017e565b005b3480156100ba57600080fd5b506100d560048036038101906100d091906113b2565b61057b565b005b3480156100e357600080fd5b506100ec610829565b6040516100f991906116b8565b60405180910390f35b34801561010e57600080fd5b50610117610a57565b60405161012491906116b8565b60405180910390f35b610135610de4565b005b6000600360003373ffffffffffffffffffffffffffffffffffffffff1673ffffffffffffffffffffffffffffffffffffffff16815260200190815260200160002054905090565b60008054906101000a900473ffffffffffffffffffffffffffffffffffffffff1673ffffffffffffffffffffffffffffffffffffffff163373ffffffffffffffffffffffffffffffffffffffff161461020c576040517f08c379a000000000000000000000000000000000000000000000000000000000815260040161020390611737565b60405180910390fd5b60006001808361021c9190611786565b8154811061022d5761022c6117ba565b5b90600052602060002090600602016040518060e0016040529081600082015481526020016001820160009054906101000a900473ffffffffffffffffffffffffffffffffffffffff1673ffffffffffffffffffffffffffffffffffffffff1673ffffffffffffffffffffffffffffffffffffffff1681526020016002820180546102b690611818565b80601f01602080910402602001604051908101604052809291908181526020018280546102e290611818565b801561032f5780601f106103045761010080835404028352916020019161032f565b820191906000526020600020905b81548152906001019060200180831161031257829003601f168201915b5050505050815260200160038201805461034890611818565b80601f016020809104026020016040519081016040528092919081815260200182805461037490611818565b80156103c15780601f10610396576101008083540402835291602001916103c1565b820191906000526020600020905b8154815290600101906020018083116103a457829003601f168201915b50505050508152602001600482015481526020016005820160009054906101000a900463ffffffff1663ffffffff1663ffffffff1681526020016005820160049054906101000a900460ff16151515158152505090503373ffffffffffffffffffffffffffffffffffffffff16816020015173ffffffffffffffffffffffffffffffffffffffff1614610489576040517f08c379a000000000000000000000000000000000000000000000000000000000815260040161048090611896565b60405180910390fd5b600015158160c001511515146104d4576040517f08c379a00000000000000000000000000000000000000000000000000000000081526004016104cb90611902565b60405180910390fd5b428160a0015163ffffffff161015610521576040517f08c379a00000000000000000000000000000000000000000000000000000000081526004016105189061196e565b60405180910390fd5b61052e8160800151610eca565b60018060018461053e9190611786565b8154811061054f5761054e6117ba565b5b906000526020600020906006020160050160046101000a81548160ff0219169083151502179055505050565b60008054906101000a900473ffffffffffffffffffffffffffffffffffffffff1673ffffffffffffffffffffffffffffffffffffffff163373ffffffffffffffffffffffffffffffffffffffff1614610609576040517f08c379a000000000000000000000000000000000000000000000000000000000815260040161060090611737565b60405180910390fd5b60006001808054905061061c919061198e565b9050600060016040518060e001604052808481526020013373ffffffffffffffffffffffffffffffffffffffff1681526020018881526020018781526020018681526020018563ffffffff16815260200183151581525090806001815401808255809150506001900390600052602060002090600602016000909190919091506000820151816000015560208201518160010160006101000a81548173ffffffffffffffffffffffffffffffffffffffff021916908373ffffffffffffffffffffffffffffffffffffffff1602179055506040820151816002019080519060200190610709929190611091565b506060820151816003019080519060200190610726929190611091565b506080820151816004015560a08201518160050160006101000a81548163ffffffff021916908363ffffffff16021790555060c08201518160050160046101000a81548160ff0219169083151502179055505050600260003373ffffffffffffffffffffffffffffffffffffffff1673ffffffffffffffffffffffffffffffffffffffff1681526020019081526020016000208290806001815401808255809150506001900390600052602060002001600090919091909150557f3afde4025da733b47ad7b6a9af40a95d9a7cd7d78a753e729f8902f8db607db882878787878660405161081996959493929190611a3b565b60405180910390a1505050505050565b60606001805480602002602001604051908101604052809291908181526020016000905b82821015610a4e57838290600052602060002090600602016040518060e0016040529081600082015481526020016001820160009054906101000a900473ffffffffffffffffffffffffffffffffffffffff1673ffffffffffffffffffffffffffffffffffffffff1673ffffffffffffffffffffffffffffffffffffffff1681526020016002820180546108e090611818565b80601f016020809104026020016040519081016040528092919081815260200182805461090c90611818565b80156109595780601f1061092e57610100808354040283529160200191610959565b820191906000526020600020905b81548152906001019060200180831161093c57829003601f168201915b5050505050815260200160038201805461097290611818565b80601f016020809104026020016040519081016040528092919081815260200182805461099e90611818565b80156109eb5780601f106109c0576101008083540402835291602001916109eb565b820191906000526020600020905b8154815290600101906020018083116109ce57829003601f168201915b50505050508152602001600482015481526020016005820160009054906101000a900463ffffffff1663ffffffff1663ffffffff1681526020016005820160049054906101000a900460ff1615151515815250508152602001906001019061084d565b50505050905090565b60606000600260003373ffffffffffffffffffffffffffffffffffffffff1673ffffffffffffffffffffffffffffffffffffffff168152602001908152602001600020805480602002602001604051908101604052809291908181526020018280548015610ae457602002820191906000526020600020905b815481526020019060010190808311610ad0575b505050505090506000815167ffffffffffffffff811115610b0857610b0761124b565b5b604051908082528060200260200182016040528015610b4157816020015b610b2e611117565b815260200190600190039081610b265790505b5090506000805b8351811015610dda576000848281518110610b6657610b656117ba565b5b602002602001015114610dc7576000848281518110610b8857610b876117ba565b5b6020026020010151905060018082610ba09190611786565b81548110610bb157610bb06117ba565b5b90600052602060002090600602016040518060e0016040529081600082015481526020016001820160009054906101000a900473ffffffffffffffffffffffffffffffffffffffff1673ffffffffffffffffffffffffffffffffffffffff1673ffffffffffffffffffffffffffffffffffffffff168152602001600282018054610c3a90611818565b80601f0160208091040260200160405190810160405280929190818152602001828054610c6690611818565b8015610cb35780601f10610c8857610100808354040283529160200191610cb3565b820191906000526020600020905b815481529060010190602001808311610c9657829003601f168201915b50505050508152602001600382018054610ccc90611818565b80601f0160208091040260200160405190810160405280929190818152602001828054610cf890611818565b8015610d455780601f10610d1a57610100808354040283529160200191610d45565b820191906000526020600020905b815481529060010190602001808311610d2857829003601f168201915b50505050508152602001600482015481526020016005820160009054906101000a900463ffffffff1663ffffffff1663ffffffff1681526020016005820160049054906101000a900460ff161515151581525050848381518110610dac57610dab6117ba565b5b60200260200101819052508280610dc290611aaa565b935050505b8080610dd290611aaa565b915050610b48565b5081935050505090565b60008054906101000a900473ffffffffffffffffffffffffffffffffffffffff1673ffffffffffffffffffffffffffffffffffffffff163373ffffffffffffffffffffffffffffffffffffffff1614610e72576040517f08c379a0000000000000000000000000000000000000000000000000000000008152600401610e6990611737565b60405180910390fd5b34600360003373ffffffffffffffffffffffffffffffffffffffff1673ffffffffffffffffffffffffffffffffffffffff1681526020019081526020016000206000828254610ec1919061198e565b92505081905550565b80600360003373ffffffffffffffffffffffffffffffffffffffff1673ffffffffffffffffffffffffffffffffffffffff168152602001908152602001600020541015610f4c576040517f08c379a0000000000000000000000000000000000000000000000000000000008152600401610f4390611b3f565b60405180910390fd5b6000600360003373ffffffffffffffffffffffffffffffffffffffff1673ffffffffffffffffffffffffffffffffffffffff16815260200190815260200160002054905081600360003373ffffffffffffffffffffffffffffffffffffffff1673ffffffffffffffffffffffffffffffffffffffff1681526020019081526020016000206000828254610fdf9190611786565b925050819055503373ffffffffffffffffffffffffffffffffffffffff166108fc839081150290604051600060405180830381858888f1935050505015801561102c573d6000803e3d6000fd5b506000600360003373ffffffffffffffffffffffffffffffffffffffff1673ffffffffffffffffffffffffffffffffffffffff168152602001908152602001600020549050828261107d9190611786565b811461108c5761108b611b5f565b5b505050565b82805461109d90611818565b90600052602060002090601f0160209004810192826110bf5760008555611106565b82601f106110d857805160ff1916838001178555611106565b82800160010185558215611106579182015b828111156111055782518255916020019190600101906110ea565b5b5090506111139190611172565b5090565b6040518060e0016040528060008152602001600073ffffffffffffffffffffffffffffffffffffffff168152602001606081526020016060815260200160008152602001600063ffffffff1681526020016000151581525090565b5b8082111561118b576000816000905550600101611173565b5090565b6000819050919050565b6111a28161118f565b82525050565b60006020820190506111bd6000830184611199565b92915050565b6000604051905090565b600080fd5b600080fd5b6111e08161118f565b81146111eb57600080fd5b50565b6000813590506111fd816111d7565b92915050565b600060208284031215611219576112186111cd565b5b6000611227848285016111ee565b91505092915050565b600080fd5b600080fd5b6000601f19601f8301169050919050565b7f4e487b7100000000000000000000000000000000000000000000000000000000600052604160045260246000fd5b6112838261123a565b810181811067ffffffffffffffff821117156112a2576112a161124b565b5b80604052505050565b60006112b56111c3565b90506112c1828261127a565b919050565b600067ffffffffffffffff8211156112e1576112e061124b565b5b6112ea8261123a565b9050602081019050919050565b82818337600083830152505050565b6000611319611314846112c6565b6112ab565b90508281526020810184848401111561133557611334611235565b5b6113408482856112f7565b509392505050565b600082601f83011261135d5761135c611230565b5b813561136d848260208601611306565b91505092915050565b600063ffffffff82169050919050565b61138f81611376565b811461139a57600080fd5b50565b6000813590506113ac81611386565b92915050565b600080600080608085870312156113cc576113cb6111cd565b5b600085013567ffffffffffffffff8111156113ea576113e96111d2565b5b6113f687828801611348565b945050602085013567ffffffffffffffff811115611417576114166111d2565b5b61142387828801611348565b9350506040611434878288016111ee565b92505060606114458782880161139d565b91505092959194509250565b600081519050919050565b600082825260208201905092915050565b6000819050602082019050919050565b6114868161118f565b82525050565b600073ffffffffffffffffffffffffffffffffffffffff82169050919050565b60006114b78261148c565b9050919050565b6114c7816114ac565b82525050565b600081519050919050565b600082825260208201905092915050565b60005b838110156115075780820151818401526020810190506114ec565b83811115611516576000848401525b50505050565b6000611527826114cd565b61153181856114d8565b93506115418185602086016114e9565b61154a8161123a565b840191505092915050565b61155e81611376565b82525050565b60008115159050919050565b61157981611564565b82525050565b600060e083016000830151611597600086018261147d565b5060208301516115aa60208601826114be565b50604083015184820360408601526115c2828261151c565b915050606083015184820360608601526115dc828261151c565b91505060808301516115f1608086018261147d565b5060a083015161160460a0860182611555565b5060c083015161161760c0860182611570565b508091505092915050565b600061162e838361157f565b905092915050565b6000602082019050919050565b600061164e82611451565b611658818561145c565b93508360208202850161166a8561146d565b8060005b858110156116a657848403895281516116878582611622565b945061169283611636565b925060208a0199505060018101905061166e565b50829750879550505050505092915050565b600060208201905081810360008301526116d28184611643565b905092915050565b600082825260208201905092915050565b7f596f7520617265206e6f7420746865206f776e65720000000000000000000000600082015250565b60006117216015836116da565b915061172c826116eb565b602082019050919050565b6000602082019050818103600083015261175081611714565b9050919050565b7f4e487b7100000000000000000000000000000000000000000000000000000000600052601160045260246000fd5b60006117918261118f565b915061179c8361118f565b9250828210156117af576117ae611757565b5b828203905092915050565b7f4e487b7100000000000000000000000000000000000000000000000000000000600052603260045260246000fd5b7f4e487b7100000000000000000000000000000000000000000000000000000000600052602260045260246000fd5b6000600282049050600182168061183057607f821691505b60208210811415611844576118436117e9565b5b50919050565b7f446f6e27742068617665207468697320746f646f000000000000000000000000600082015250565b60006118806014836116da565b915061188b8261184a565b602082019050919050565b600060208201905081810360008301526118af81611873565b9050919050565b7f416c726561647920646f6e650000000000000000000000000000000000000000600082015250565b60006118ec600c836116da565b91506118f7826118b6565b602082019050919050565b6000602082019050818103600083015261191b816118df565b9050919050565b7f446561646c696e65206861732070617373656400000000000000000000000000600082015250565b60006119586013836116da565b915061196382611922565b602082019050919050565b600060208201905081810360008301526119878161194b565b9050919050565b60006119998261118f565b91506119a48361118f565b9250827fffffffffffffffffffffffffffffffffffffffffffffffffffffffffffffffff038211156119d9576119d8611757565b5b828201905092915050565b60006119ef826114cd565b6119f981856116da565b9350611a098185602086016114e9565b611a128161123a565b840191505092915050565b611a2681611376565b82525050565b611a3581611564565b82525050565b600060c082019050611a506000830189611199565b8181036020830152611a6281886119e4565b90508181036040830152611a7681876119e4565b9050611a856060830186611199565b611a926080830185611a1d565b611a9f60a0830184611a2c565b979650505050505050565b6000611ab58261118f565b91507fffffffffffffffffffffffffffffffffffffffffffffffffffffffffffffffff821415611ae857611ae7611757565b5b600182019050919050565b7f496e73756666696369656e742062616c616e6365000000000000000000000000600082015250565b6000611b296014836116da565b9150611b3482611af3565b602082019050919050565b60006020820190508181036000830152611b5881611b1c565b9050919050565b7f4e487b7100000000000000000000000000000000000000000000000000000000600052600160045260246000fdfea26469706673582212200c4b5430da408d1090a03c9ca19f2dd0c97d5433ed19c7ff12e009e4c24e2c2d64736f6c63430008090033",
  "linkReferences": {},
  "deployedLinkReferences": {}
}