{
  "_format": "hh-sol-artifact-1",
  "contractName": "TodoFactory",
  "sourceName": "contracts/TodoFactory.sol",
  "abi": [
    {
      "anonymous": false,
      "inputs": [
        {
          "indexed": false,
          "internalType": "string",
          "name": "title",
          "type": "string"
        },
        {
          "indexed": false,
          "internalType": "string",
          "name": "body",
          "type": "string"
        },
        {
          "indexed": false,
          "internalType": "uint256",
          "name": "poolAmount",
          "type": "uint256"
        },
        {
          "indexed": false,
          "internalType": "uint32",
          "name": "deadline",
          "type": "uint32"
        }
      ],
      "name": "NewTodo",
      "type": "event"
    },
    {
      "inputs": [
        {
          "internalType": "string",
          "name": "_title",
          "type": "string"
        },
        {
          "internalType": "string",
          "name": "_body",
          "type": "string"
        },
        {
          "internalType": "uint256",
          "name": "_poolAmount",
          "type": "uint256"
        },
        {
          "internalType": "uint32",
          "name": "_deadline",
          "type": "uint32"
        }
      ],
      "name": "createTodo",
      "outputs": [],
      "stateMutability": "nonpayable",
      "type": "function"
    },
    {
      "inputs": [],
      "name": "deposit",
      "outputs": [],
      "stateMutability": "payable",
      "type": "function"
    },
    {
      "inputs": [],
      "name": "doneTodo",
      "outputs": [],
      "stateMutability": "view",
      "type": "function"
    },
    {
      "inputs": [],
      "name": "getAllTodos",
      "outputs": [
        {
          "components": [
            {
              "internalType": "address",
              "name": "creator",
              "type": "address"
            },
            {
              "internalType": "string",
              "name": "title",
              "type": "string"
            },
            {
              "internalType": "string",
              "name": "body",
              "type": "string"
            },
            {
              "internalType": "uint256",
              "name": "poolAmount",
              "type": "uint256"
            },
            {
              "internalType": "uint32",
              "name": "deadline",
              "type": "uint32"
            },
            {
              "internalType": "bool",
              "name": "done",
              "type": "bool"
            },
            {
              "internalType": "uint32",
              "name": "timestamp",
              "type": "uint32"
            }
          ],
          "internalType": "struct TodoFactory.Todo[]",
          "name": "",
          "type": "tuple[]"
        }
      ],
      "stateMutability": "view",
      "type": "function"
    },
    {
      "inputs": [],
      "name": "getBalance",
      "outputs": [
        {
          "internalType": "uint256",
          "name": "",
          "type": "uint256"
        }
      ],
      "stateMutability": "view",
      "type": "function"
    },
    {
      "inputs": [
        {
          "internalType": "uint256",
          "name": "_amount",
          "type": "uint256"
        }
      ],
      "name": "withdrow",
      "outputs": [],
      "stateMutability": "nonpayable",
      "type": "function"
    }
  ],
  "bytecode": "0x608060405234801561001057600080fd5b50611323806100206000396000f3fe6080604052600436106100555760003560e01c806312065fe01461005a5780637e7f08561461008557806393ae006d146100ae578063ce2bd5d5146100d7578063d0e30db014610102578063fb96ee2a1461010c575b600080fd5b34801561006657600080fd5b5061006f610123565b60405161007c9190610ae9565b60405180910390f35b34801561009157600080fd5b506100ac60048036038101906100a79190610cc6565b610169565b005b3480156100ba57600080fd5b506100d560048036038101906100d09190610d65565b610410565b005b3480156100e357600080fd5b506100ec6104af565b6040516100f99190610ff9565b60405180910390f35b61010a6106f9565b005b34801561011857600080fd5b50610121610750565b005b60008060003373ffffffffffffffffffffffffffffffffffffffff1673ffffffffffffffffffffffffffffffffffffffff16815260200190815260200160002054905090565b61018c6040518060600160405280602181526020016112cd602191393386610791565b6101cb6040518060400160405280600881526020017f626f64793a20257300000000000000000000000000000000000000000000000081525084610830565b61020a6040518060400160405280600e81526020017f706f6f6c416d6f756e743a202573000000000000000000000000000000000000815250836108cc565b61024f6040518060400160405280600c81526020017f646561646c696e653a20257300000000000000000000000000000000000000008152508263ffffffff166108cc565b60016040518060e001604052803373ffffffffffffffffffffffffffffffffffffffff1681526020018681526020018581526020018481526020018363ffffffff1681526020016000151581526020014263ffffffff16815250908060018154018082558091505060019003906000526020600020906005020160009091909190915060008201518160000160006101000a81548173ffffffffffffffffffffffffffffffffffffffff021916908373ffffffffffffffffffffffffffffffffffffffff1602179055506020820151816001019080519060200190610335929190610a2d565b506040820151816002019080519060200190610352929190610a2d565b506060820151816003015560808201518160040160006101000a81548163ffffffff021916908363ffffffff16021790555060a08201518160040160046101000a81548160ff02191690831515021790555060c08201518160040160056101000a81548163ffffffff021916908363ffffffff16021790555050507f674a1dbbe02f048be6618017a6c861ea128a50a4bac07261d7e210e3b43e9e29848484846040516104029493929190611074565b60405180910390a150505050565b806000803373ffffffffffffffffffffffffffffffffffffffff1673ffffffffffffffffffffffffffffffffffffffff168152602001908152602001600020600082825461045e91906110f6565b925050819055503373ffffffffffffffffffffffffffffffffffffffff166108fc829081150290604051600060405180830381858888f193505050501580156104ab573d6000803e3d6000fd5b5050565b60606001805480602002602001604051908101604052809291908181526020016000905b828210156106f057838290600052602060002090600502016040518060e00160405290816000820160009054906101000a900473ffffffffffffffffffffffffffffffffffffffff1673ffffffffffffffffffffffffffffffffffffffff1673ffffffffffffffffffffffffffffffffffffffff16815260200160018201805461055c90611159565b80601f016020809104026020016040519081016040528092919081815260200182805461058890611159565b80156105d55780601f106105aa576101008083540402835291602001916105d5565b820191906000526020600020905b8154815290600101906020018083116105b857829003601f168201915b505050505081526020016002820180546105ee90611159565b80601f016020809104026020016040519081016040528092919081815260200182805461061a90611159565b80156106675780601f1061063c57610100808354040283529160200191610667565b820191906000526020600020905b81548152906001019060200180831161064a57829003601f168201915b50505050508152602001600382015481526020016004820160009054906101000a900463ffffffff1663ffffffff1663ffffffff1681526020016004820160049054906101000a900460ff161515151581526020016004820160059054906101000a900463ffffffff1663ffffffff1663ffffffff1681525050815260200190600101906104d3565b50505050905090565b346000803373ffffffffffffffffffffffffffffffffffffffff1673ffffffffffffffffffffffffffffffffffffffff1681526020019081526020016000206000828254610747919061118b565b92505081905550565b61078f6040518060400160405280600d81526020017f257320646f6e6520746f646f210000000000000000000000000000000000000081525033610968565b565b61082b8383836040516024016107a9939291906111f0565b6040516020818303038152906040527fe0e9ad4f000000000000000000000000000000000000000000000000000000007bffffffffffffffffffffffffffffffffffffffffffffffffffffffff19166020820180517bffffffffffffffffffffffffffffffffffffffffffffffffffffffff8381831617835250505050610a04565b505050565b6108c88282604051602401610846929190611235565b6040516020818303038152906040527f4b5c4277000000000000000000000000000000000000000000000000000000007bffffffffffffffffffffffffffffffffffffffffffffffffffffffff19166020820180517bffffffffffffffffffffffffffffffffffffffffffffffffffffffff8381831617835250505050610a04565b5050565b61096482826040516024016108e292919061126c565b6040516020818303038152906040527fb60e72cc000000000000000000000000000000000000000000000000000000007bffffffffffffffffffffffffffffffffffffffffffffffffffffffff19166020820180517bffffffffffffffffffffffffffffffffffffffffffffffffffffffff8381831617835250505050610a04565b5050565b610a00828260405160240161097e92919061129c565b6040516020818303038152906040527f319af333000000000000000000000000000000000000000000000000000000007bffffffffffffffffffffffffffffffffffffffffffffffffffffffff19166020820180517bffffffffffffffffffffffffffffffffffffffffffffffffffffffff8381831617835250505050610a04565b5050565b60008151905060006a636f6e736f6c652e6c6f679050602083016000808483855afa5050505050565b828054610a3990611159565b90600052602060002090601f016020900481019282610a5b5760008555610aa2565b82601f10610a7457805160ff1916838001178555610aa2565b82800160010185558215610aa2579182015b82811115610aa1578251825591602001919060010190610a86565b5b509050610aaf9190610ab3565b5090565b5b80821115610acc576000816000905550600101610ab4565b5090565b6000819050919050565b610ae381610ad0565b82525050565b6000602082019050610afe6000830184610ada565b92915050565b6000604051905090565b600080fd5b600080fd5b600080fd5b600080fd5b6000601f19601f8301169050919050565b7f4e487b7100000000000000000000000000000000000000000000000000000000600052604160045260246000fd5b610b6b82610b22565b810181811067ffffffffffffffff82111715610b8a57610b89610b33565b5b80604052505050565b6000610b9d610b04565b9050610ba98282610b62565b919050565b600067ffffffffffffffff821115610bc957610bc8610b33565b5b610bd282610b22565b9050602081019050919050565b82818337600083830152505050565b6000610c01610bfc84610bae565b610b93565b905082815260208101848484011115610c1d57610c1c610b1d565b5b610c28848285610bdf565b509392505050565b600082601f830112610c4557610c44610b18565b5b8135610c55848260208601610bee565b91505092915050565b610c6781610ad0565b8114610c7257600080fd5b50565b600081359050610c8481610c5e565b92915050565b600063ffffffff82169050919050565b610ca381610c8a565b8114610cae57600080fd5b50565b600081359050610cc081610c9a565b92915050565b60008060008060808587031215610ce057610cdf610b0e565b5b600085013567ffffffffffffffff811115610cfe57610cfd610b13565b5b610d0a87828801610c30565b945050602085013567ffffffffffffffff811115610d2b57610d2a610b13565b5b610d3787828801610c30565b9350506040610d4887828801610c75565b9250506060610d5987828801610cb1565b91505092959194509250565b600060208284031215610d7b57610d7a610b0e565b5b6000610d8984828501610c75565b91505092915050565b600081519050919050565b600082825260208201905092915050565b6000819050602082019050919050565b600073ffffffffffffffffffffffffffffffffffffffff82169050919050565b6000610de982610dbe565b9050919050565b610df981610dde565b82525050565b600081519050919050565b600082825260208201905092915050565b60005b83811015610e39578082015181840152602081019050610e1e565b83811115610e48576000848401525b50505050565b6000610e5982610dff565b610e638185610e0a565b9350610e73818560208601610e1b565b610e7c81610b22565b840191505092915050565b610e9081610ad0565b82525050565b610e9f81610c8a565b82525050565b60008115159050919050565b610eba81610ea5565b82525050565b600060e083016000830151610ed86000860182610df0565b5060208301518482036020860152610ef08282610e4e565b91505060408301518482036040860152610f0a8282610e4e565b9150506060830151610f1f6060860182610e87565b506080830151610f326080860182610e96565b5060a0830151610f4560a0860182610eb1565b5060c0830151610f5860c0860182610e96565b508091505092915050565b6000610f6f8383610ec0565b905092915050565b6000602082019050919050565b6000610f8f82610d92565b610f998185610d9d565b935083602082028501610fab85610dae565b8060005b85811015610fe75784840389528151610fc88582610f63565b9450610fd383610f77565b925060208a01995050600181019050610faf565b50829750879550505050505092915050565b600060208201905081810360008301526110138184610f84565b905092915050565b600082825260208201905092915050565b600061103782610dff565b611041818561101b565b9350611051818560208601610e1b565b61105a81610b22565b840191505092915050565b61106e81610c8a565b82525050565b6000608082019050818103600083015261108e818761102c565b905081810360208301526110a2818661102c565b90506110b16040830185610ada565b6110be6060830184611065565b95945050505050565b7f4e487b7100000000000000000000000000000000000000000000000000000000600052601160045260246000fd5b600061110182610ad0565b915061110c83610ad0565b92508282101561111f5761111e6110c7565b5b828203905092915050565b7f4e487b7100000000000000000000000000000000000000000000000000000000600052602260045260246000fd5b6000600282049050600182168061117157607f821691505b602082108114156111855761118461112a565b5b50919050565b600061119682610ad0565b91506111a183610ad0565b9250827fffffffffffffffffffffffffffffffffffffffffffffffffffffffffffffffff038211156111d6576111d56110c7565b5b828201905092915050565b6111ea81610dde565b82525050565b6000606082019050818103600083015261120a818661102c565b905061121960208301856111e1565b818103604083015261122b818461102c565b9050949350505050565b6000604082019050818103600083015261124f818561102c565b90508181036020830152611263818461102c565b90509392505050565b60006040820190508181036000830152611286818561102c565b90506112956020830184610ada565b9392505050565b600060408201905081810360008301526112b6818561102c565b90506112c560208301846111e1565b939250505056fe25732063726561746520746f646f20772f2077697468200a7469746c653a202573a26469706673582212203a74dd07d765b422f39cfc56edb4cc440417a459ae262a08fd475bdfb83200e264736f6c63430008090033",
  "linkReferences": {},
  "deployedLinkReferences": {}
}