{
  "_format": "hh-sol-artifact-1",
  "contractName": "TodoFactory",
  "sourceName": "contracts/TodoFactory.sol",
  "abi": [
    {
      "inputs": [],
      "stateMutability": "nonpayable",
      "type": "constructor"
    },
    {
      "anonymous": false,
      "inputs": [
        {
          "indexed": false,
          "internalType": "string",
          "name": "title",
          "type": "string"
        },
        {
          "indexed": false,
          "internalType": "string",
          "name": "body",
          "type": "string"
        },
        {
          "indexed": false,
          "internalType": "uint256",
          "name": "amount",
          "type": "uint256"
        }
      ],
      "name": "NewTodo",
      "type": "event"
    },
    {
      "inputs": [
        {
          "internalType": "string",
          "name": "_title",
          "type": "string"
        },
        {
          "internalType": "string",
          "name": "_body",
          "type": "string"
        },
        {
          "internalType": "uint256",
          "name": "_amount",
          "type": "uint256"
        }
      ],
      "name": "createTodo",
      "outputs": [],
      "stateMutability": "nonpayable",
      "type": "function"
    },
    {
      "inputs": [],
      "name": "deleteTodo",
      "outputs": [],
      "stateMutability": "nonpayable",
      "type": "function"
    },
    {
      "inputs": [],
      "name": "getAllTodos",
      "outputs": [
        {
          "components": [
            {
              "internalType": "address",
              "name": "creator",
              "type": "address"
            },
            {
              "internalType": "uint256",
              "name": "timestamp",
              "type": "uint256"
            },
            {
              "internalType": "string",
              "name": "title",
              "type": "string"
            },
            {
              "internalType": "string",
              "name": "body",
              "type": "string"
            },
            {
              "internalType": "uint256",
              "name": "amount",
              "type": "uint256"
            }
          ],
          "internalType": "struct TodoFactory.Todo[]",
          "name": "",
          "type": "tuple[]"
        }
      ],
      "stateMutability": "view",
      "type": "function"
    },
    {
      "inputs": [],
      "name": "getTotalTodos",
      "outputs": [
        {
          "internalType": "uint256",
          "name": "",
          "type": "uint256"
        }
      ],
      "stateMutability": "view",
      "type": "function"
    }
  ],
  "bytecode": "0x60806040523480156200001157600080fd5b506200005d6040518060400160405280601d81526020017f546f646f466163746f7279202d20536d61727420436f6e7472616374210000008152506200006360201b620004fc1760201c565b620001f7565b62000103816040516024016200007a9190620001d3565b6040516020818303038152906040527f41304fac000000000000000000000000000000000000000000000000000000007bffffffffffffffffffffffffffffffffffffffffffffffffffffffff19166020820180517bffffffffffffffffffffffffffffffffffffffffffffffffffffffff83818316178352505050506200010660201b60201c565b50565b60008151905060006a636f6e736f6c652e6c6f679050602083016000808483855afa5050505050565b600081519050919050565b600082825260208201905092915050565b60005b838110156200016b5780820151818401526020810190506200014e565b838111156200017b576000848401525b50505050565b6000601f19601f8301169050919050565b60006200019f826200012f565b620001ab81856200013a565b9350620001bd8185602086016200014b565b620001c88162000181565b840191505092915050565b60006020820190508181036000830152620001ef818462000192565b905092915050565b61105f80620002076000396000f3fe608060405234801561001057600080fd5b506004361061004c5760003560e01c80631b928946146100515780633c42ea3b1461006f578063ce2bd5d51461008b578063f11fe10a146100a9575b600080fd5b6100596100b3565b60405161006691906108ed565b60405180910390f35b61008960048036038101906100849190610a8e565b6100bc565b005b6100936102b5565b6040516100a09190610d30565b60405180910390f35b6100b16104a2565b005b60008054905090565b60016000808282546100ce9190610d81565b925050819055506100f8604051806060016040528060218152602001611009602191393385610595565b6101376040518060400160405280600881526020017f626f64793a20257300000000000000000000000000000000000000000000000081525083610634565b6101766040518060400160405280600a81526020017f616d6f756e743a20257300000000000000000000000000000000000000000000815250826106d0565b60016040518060a001604052803373ffffffffffffffffffffffffffffffffffffffff16815260200142815260200185815260200184815260200183815250908060018154018082558091505060019003906000526020600020906005020160009091909190915060008201518160000160006101000a81548173ffffffffffffffffffffffffffffffffffffffff021916908373ffffffffffffffffffffffffffffffffffffffff16021790555060208201518160010155604082015181600201908051906020019061024b929190610831565b506060820151816003019080519060200190610268929190610831565b506080820151816004015550507f07835f63e80aeaa316ff48e683ac2b58bd4f667b4e62e09621501fa1b2b01b218383836040516102a893929190610e21565b60405180910390a1505050565b60606001805480602002602001604051908101604052809291908181526020016000905b8282101561049957838290600052602060002090600502016040518060a00160405290816000820160009054906101000a900473ffffffffffffffffffffffffffffffffffffffff1673ffffffffffffffffffffffffffffffffffffffff1673ffffffffffffffffffffffffffffffffffffffff1681526020016001820154815260200160028201805461036c90610e95565b80601f016020809104026020016040519081016040528092919081815260200182805461039890610e95565b80156103e55780601f106103ba576101008083540402835291602001916103e5565b820191906000526020600020905b8154815290600101906020018083116103c857829003601f168201915b505050505081526020016003820180546103fe90610e95565b80601f016020809104026020016040519081016040528092919081815260200182805461042a90610e95565b80156104775780601f1061044c57610100808354040283529160200191610477565b820191906000526020600020905b81548152906001019060200180831161045a57829003601f168201915b50505050508152602001600482015481525050815260200190600101906102d9565b50505050905090565b60016000808282546104b49190610ec7565b925050819055506104fa6040518060400160405280600f81526020017f25732064656c65746520746f646f2100000000000000000000000000000000008152503361076c565b565b610592816040516024016105109190610efb565b6040516020818303038152906040527f41304fac000000000000000000000000000000000000000000000000000000007bffffffffffffffffffffffffffffffffffffffffffffffffffffffff19166020820180517bffffffffffffffffffffffffffffffffffffffffffffffffffffffff8381831617835250505050610808565b50565b61062f8383836040516024016105ad93929190610f2c565b6040516020818303038152906040527fe0e9ad4f000000000000000000000000000000000000000000000000000000007bffffffffffffffffffffffffffffffffffffffffffffffffffffffff19166020820180517bffffffffffffffffffffffffffffffffffffffffffffffffffffffff8381831617835250505050610808565b505050565b6106cc828260405160240161064a929190610f71565b6040516020818303038152906040527f4b5c4277000000000000000000000000000000000000000000000000000000007bffffffffffffffffffffffffffffffffffffffffffffffffffffffff19166020820180517bffffffffffffffffffffffffffffffffffffffffffffffffffffffff8381831617835250505050610808565b5050565b61076882826040516024016106e6929190610fa8565b6040516020818303038152906040527fb60e72cc000000000000000000000000000000000000000000000000000000007bffffffffffffffffffffffffffffffffffffffffffffffffffffffff19166020820180517bffffffffffffffffffffffffffffffffffffffffffffffffffffffff8381831617835250505050610808565b5050565b6108048282604051602401610782929190610fd8565b6040516020818303038152906040527f319af333000000000000000000000000000000000000000000000000000000007bffffffffffffffffffffffffffffffffffffffffffffffffffffffff19166020820180517bffffffffffffffffffffffffffffffffffffffffffffffffffffffff8381831617835250505050610808565b5050565b60008151905060006a636f6e736f6c652e6c6f679050602083016000808483855afa5050505050565b82805461083d90610e95565b90600052602060002090601f01602090048101928261085f57600085556108a6565b82601f1061087857805160ff19168380011785556108a6565b828001600101855582156108a6579182015b828111156108a557825182559160200191906001019061088a565b5b5090506108b391906108b7565b5090565b5b808211156108d05760008160009055506001016108b8565b5090565b6000819050919050565b6108e7816108d4565b82525050565b600060208201905061090260008301846108de565b92915050565b6000604051905090565b600080fd5b600080fd5b600080fd5b600080fd5b6000601f19601f8301169050919050565b7f4e487b7100000000000000000000000000000000000000000000000000000000600052604160045260246000fd5b61096f82610926565b810181811067ffffffffffffffff8211171561098e5761098d610937565b5b80604052505050565b60006109a1610908565b90506109ad8282610966565b919050565b600067ffffffffffffffff8211156109cd576109cc610937565b5b6109d682610926565b9050602081019050919050565b82818337600083830152505050565b6000610a05610a00846109b2565b610997565b905082815260208101848484011115610a2157610a20610921565b5b610a2c8482856109e3565b509392505050565b600082601f830112610a4957610a4861091c565b5b8135610a598482602086016109f2565b91505092915050565b610a6b816108d4565b8114610a7657600080fd5b50565b600081359050610a8881610a62565b92915050565b600080600060608486031215610aa757610aa6610912565b5b600084013567ffffffffffffffff811115610ac557610ac4610917565b5b610ad186828701610a34565b935050602084013567ffffffffffffffff811115610af257610af1610917565b5b610afe86828701610a34565b9250506040610b0f86828701610a79565b9150509250925092565b600081519050919050565b600082825260208201905092915050565b6000819050602082019050919050565b600073ffffffffffffffffffffffffffffffffffffffff82169050919050565b6000610b7082610b45565b9050919050565b610b8081610b65565b82525050565b610b8f816108d4565b82525050565b600081519050919050565b600082825260208201905092915050565b60005b83811015610bcf578082015181840152602081019050610bb4565b83811115610bde576000848401525b50505050565b6000610bef82610b95565b610bf98185610ba0565b9350610c09818560208601610bb1565b610c1281610926565b840191505092915050565b600060a083016000830151610c356000860182610b77565b506020830151610c486020860182610b86565b5060408301518482036040860152610c608282610be4565b91505060608301518482036060860152610c7a8282610be4565b9150506080830151610c8f6080860182610b86565b508091505092915050565b6000610ca68383610c1d565b905092915050565b6000602082019050919050565b6000610cc682610b19565b610cd08185610b24565b935083602082028501610ce285610b35565b8060005b85811015610d1e5784840389528151610cff8582610c9a565b9450610d0a83610cae565b925060208a01995050600181019050610ce6565b50829750879550505050505092915050565b60006020820190508181036000830152610d4a8184610cbb565b905092915050565b7f4e487b7100000000000000000000000000000000000000000000000000000000600052601160045260246000fd5b6000610d8c826108d4565b9150610d97836108d4565b9250827fffffffffffffffffffffffffffffffffffffffffffffffffffffffffffffffff03821115610dcc57610dcb610d52565b5b828201905092915050565b600082825260208201905092915050565b6000610df382610b95565b610dfd8185610dd7565b9350610e0d818560208601610bb1565b610e1681610926565b840191505092915050565b60006060820190508181036000830152610e3b8186610de8565b90508181036020830152610e4f8185610de8565b9050610e5e60408301846108de565b949350505050565b7f4e487b7100000000000000000000000000000000000000000000000000000000600052602260045260246000fd5b60006002820490506001821680610ead57607f821691505b60208210811415610ec157610ec0610e66565b5b50919050565b6000610ed2826108d4565b9150610edd836108d4565b925082821015610ef057610eef610d52565b5b828203905092915050565b60006020820190508181036000830152610f158184610de8565b905092915050565b610f2681610b65565b82525050565b60006060820190508181036000830152610f468186610de8565b9050610f556020830185610f1d565b8181036040830152610f678184610de8565b9050949350505050565b60006040820190508181036000830152610f8b8185610de8565b90508181036020830152610f9f8184610de8565b90509392505050565b60006040820190508181036000830152610fc28185610de8565b9050610fd160208301846108de565b9392505050565b60006040820190508181036000830152610ff28185610de8565b90506110016020830184610f1d565b939250505056fe25732063726561746520746f646f20772f2077697468200a7469746c653a202573a2646970667358221220e8ccd231f8810d73d40a1c1f46620c361ccf529e0003f33f24647da6f67cf01864736f6c63430008090033",
  "linkReferences": {},
  "deployedLinkReferences": {}
}