{
  "_format": "hh-sol-artifact-1",
  "contractName": "MyTodoPortal",
  "sourceName": "contracts/MyTodoPortal.sol",
  "abi": [
    {
      "inputs": [],
      "stateMutability": "nonpayable",
      "type": "constructor"
    },
    {
      "anonymous": false,
      "inputs": [
        {
          "indexed": true,
          "internalType": "address",
          "name": "from",
          "type": "address"
        },
        {
          "indexed": false,
          "internalType": "uint256",
          "name": "timestamp",
          "type": "uint256"
        },
        {
          "indexed": false,
          "internalType": "string",
          "name": "message",
          "type": "string"
        },
        {
          "indexed": false,
          "internalType": "uint256",
          "name": "limit",
          "type": "uint256"
        }
      ],
      "name": "NewTodo",
      "type": "event"
    },
    {
      "inputs": [
        {
          "internalType": "string",
          "name": "_message",
          "type": "string"
        },
        {
          "internalType": "uint256",
          "name": "_limit",
          "type": "uint256"
        }
      ],
      "name": "createTodo",
      "outputs": [],
      "stateMutability": "nonpayable",
      "type": "function"
    },
    {
      "inputs": [],
      "name": "deleteTodo",
      "outputs": [],
      "stateMutability": "nonpayable",
      "type": "function"
    },
    {
      "inputs": [],
      "name": "getAllTodos",
      "outputs": [
        {
          "components": [
            {
              "internalType": "address",
              "name": "creator",
              "type": "address"
            },
            {
              "internalType": "uint256",
              "name": "timestamp",
              "type": "uint256"
            },
            {
              "internalType": "string",
              "name": "message",
              "type": "string"
            },
            {
              "internalType": "uint256",
              "name": "limit",
              "type": "uint256"
            }
          ],
          "internalType": "struct MyTodoPortal.Todo[]",
          "name": "",
          "type": "tuple[]"
        }
      ],
      "stateMutability": "view",
      "type": "function"
    },
    {
      "inputs": [],
      "name": "getTotalTodos",
      "outputs": [
        {
          "internalType": "uint256",
          "name": "",
          "type": "uint256"
        }
      ],
      "stateMutability": "view",
      "type": "function"
    }
  ],
  "bytecode": "0x60806040523480156200001157600080fd5b506200005d6040518060400160405280601e81526020017f4d79546f646f506f7274616c202d20536d61727420436f6e74726163742100008152506200006360201b620003df1760201c565b620001f7565b62000103816040516024016200007a9190620001d3565b6040516020818303038152906040527f41304fac000000000000000000000000000000000000000000000000000000007bffffffffffffffffffffffffffffffffffffffffffffffffffffffff19166020820180517bffffffffffffffffffffffffffffffffffffffffffffffffffffffff83818316178352505050506200010660201b60201c565b50565b60008151905060006a636f6e736f6c652e6c6f679050602083016000808483855afa5050505050565b600081519050919050565b600082825260208201905092915050565b60005b838110156200016b5780820151818401526020810190506200014e565b838111156200017b576000848401525b50505050565b6000601f19601f8301169050919050565b60006200019f826200012f565b620001ab81856200013a565b9350620001bd8185602086016200014b565b620001c88162000181565b840191505092915050565b60006020820190508181036000830152620001ef818462000192565b905092915050565b610d5380620002076000396000f3fe608060405234801561001057600080fd5b506004361061004c5760003560e01c80631b92894614610051578063ce2bd5d51461006f578063ece28c6c1461008d578063f11fe10a146100a9575b600080fd5b6100596100b3565b6040516100669190610698565b60405180910390f35b6100776100bc565b60405161008491906108c1565b60405180910390f35b6100a760048036038101906100a29190610a58565b610217565b005b6100b1610385565b005b60008054905090565b60606001805480602002602001604051908101604052809291908181526020016000905b8282101561020e57838290600052602060002090600402016040518060800160405290816000820160009054906101000a900473ffffffffffffffffffffffffffffffffffffffff1673ffffffffffffffffffffffffffffffffffffffff1673ffffffffffffffffffffffffffffffffffffffff1681526020016001820154815260200160028201805461017390610ae3565b80601f016020809104026020016040519081016040528092919081815260200182805461019f90610ae3565b80156101ec5780601f106101c1576101008083540402835291602001916101ec565b820191906000526020600020905b8154815290600101906020018083116101cf57829003601f168201915b50505050508152602001600382015481525050815260200190600101906100e0565b50505050905090565b60016000808282546102299190610b44565b92505081905550610253604051806060016040528060218152602001610cfd602191393384610478565b600160405180608001604052803373ffffffffffffffffffffffffffffffffffffffff16815260200142815260200184815260200183815250908060018154018082558091505060019003906000526020600020906004020160009091909190915060008201518160000160006101000a81548173ffffffffffffffffffffffffffffffffffffffff021916908373ffffffffffffffffffffffffffffffffffffffff1602179055506020820151816001015560408201518160020190805190602001906103229291906105dc565b506060820151816003015550503373ffffffffffffffffffffffffffffffffffffffff167ff346c20e12d2a0983cd4481f06b89c9462104b8b646649f110c6ae78980cb1d142848460405161037993929190610be4565b60405180910390a25050565b60016000808282546103979190610c22565b925050819055506103dd6040518060400160405280600f81526020017f25732064656c65746520746f646f21000000000000000000000000000000000081525033610517565b565b610475816040516024016103f39190610c56565b6040516020818303038152906040527f41304fac000000000000000000000000000000000000000000000000000000007bffffffffffffffffffffffffffffffffffffffffffffffffffffffff19166020820180517bffffffffffffffffffffffffffffffffffffffffffffffffffffffff83818316178352505050506105b3565b50565b61051283838360405160240161049093929190610c87565b6040516020818303038152906040527fe0e9ad4f000000000000000000000000000000000000000000000000000000007bffffffffffffffffffffffffffffffffffffffffffffffffffffffff19166020820180517bffffffffffffffffffffffffffffffffffffffffffffffffffffffff83818316178352505050506105b3565b505050565b6105af828260405160240161052d929190610ccc565b6040516020818303038152906040527f319af333000000000000000000000000000000000000000000000000000000007bffffffffffffffffffffffffffffffffffffffffffffffffffffffff19166020820180517bffffffffffffffffffffffffffffffffffffffffffffffffffffffff83818316178352505050506105b3565b5050565b60008151905060006a636f6e736f6c652e6c6f679050602083016000808483855afa5050505050565b8280546105e890610ae3565b90600052602060002090601f01602090048101928261060a5760008555610651565b82601f1061062357805160ff1916838001178555610651565b82800160010185558215610651579182015b82811115610650578251825591602001919060010190610635565b5b50905061065e9190610662565b5090565b5b8082111561067b576000816000905550600101610663565b5090565b6000819050919050565b6106928161067f565b82525050565b60006020820190506106ad6000830184610689565b92915050565b600081519050919050565b600082825260208201905092915050565b6000819050602082019050919050565b600073ffffffffffffffffffffffffffffffffffffffff82169050919050565b600061070a826106df565b9050919050565b61071a816106ff565b82525050565b6107298161067f565b82525050565b600081519050919050565b600082825260208201905092915050565b60005b8381101561076957808201518184015260208101905061074e565b83811115610778576000848401525b50505050565b6000601f19601f8301169050919050565b600061079a8261072f565b6107a4818561073a565b93506107b481856020860161074b565b6107bd8161077e565b840191505092915050565b60006080830160008301516107e06000860182610711565b5060208301516107f36020860182610720565b506040830151848203604086015261080b828261078f565b91505060608301516108206060860182610720565b508091505092915050565b600061083783836107c8565b905092915050565b6000602082019050919050565b6000610857826106b3565b61086181856106be565b935083602082028501610873856106cf565b8060005b858110156108af5784840389528151610890858261082b565b945061089b8361083f565b925060208a01995050600181019050610877565b50829750879550505050505092915050565b600060208201905081810360008301526108db818461084c565b905092915050565b6000604051905090565b600080fd5b600080fd5b600080fd5b600080fd5b7f4e487b7100000000000000000000000000000000000000000000000000000000600052604160045260246000fd5b6109398261077e565b810181811067ffffffffffffffff8211171561095857610957610901565b5b80604052505050565b600061096b6108e3565b90506109778282610930565b919050565b600067ffffffffffffffff82111561099757610996610901565b5b6109a08261077e565b9050602081019050919050565b82818337600083830152505050565b60006109cf6109ca8461097c565b610961565b9050828152602081018484840111156109eb576109ea6108fc565b5b6109f68482856109ad565b509392505050565b600082601f830112610a1357610a126108f7565b5b8135610a238482602086016109bc565b91505092915050565b610a358161067f565b8114610a4057600080fd5b50565b600081359050610a5281610a2c565b92915050565b60008060408385031215610a6f57610a6e6108ed565b5b600083013567ffffffffffffffff811115610a8d57610a8c6108f2565b5b610a99858286016109fe565b9250506020610aaa85828601610a43565b9150509250929050565b7f4e487b7100000000000000000000000000000000000000000000000000000000600052602260045260246000fd5b60006002820490506001821680610afb57607f821691505b60208210811415610b0f57610b0e610ab4565b5b50919050565b7f4e487b7100000000000000000000000000000000000000000000000000000000600052601160045260246000fd5b6000610b4f8261067f565b9150610b5a8361067f565b9250827fffffffffffffffffffffffffffffffffffffffffffffffffffffffffffffffff03821115610b8f57610b8e610b15565b5b828201905092915050565b600082825260208201905092915050565b6000610bb68261072f565b610bc08185610b9a565b9350610bd081856020860161074b565b610bd98161077e565b840191505092915050565b6000606082019050610bf96000830186610689565b8181036020830152610c0b8185610bab565b9050610c1a6040830184610689565b949350505050565b6000610c2d8261067f565b9150610c388361067f565b925082821015610c4b57610c4a610b15565b5b828203905092915050565b60006020820190508181036000830152610c708184610bab565b905092915050565b610c81816106ff565b82525050565b60006060820190508181036000830152610ca18186610bab565b9050610cb06020830185610c78565b8181036040830152610cc28184610bab565b9050949350505050565b60006040820190508181036000830152610ce68185610bab565b9050610cf56020830184610c78565b939250505056fe25732063726561746520746f646f20772f2077697468206d657373616765202573a26469706673582212208cb9d5a7452f903b80c2a91d7f80e955f12e1d1de50c61ba70492d95e4fc874564736f6c63430008090033",
  "linkReferences": {},
  "deployedLinkReferences": {}
}