{
  "_format": "hh-sol-artifact-1",
  "contractName": "MyTodoPortal",
  "sourceName": "contracts/MyTodoPortal.sol",
  "abi": [
    {
      "inputs": [],
      "stateMutability": "nonpayable",
      "type": "constructor"
    },
    {
      "anonymous": false,
      "inputs": [
        {
          "indexed": true,
          "internalType": "address",
          "name": "from",
          "type": "address"
        },
        {
          "indexed": false,
          "internalType": "uint256",
          "name": "timestamp",
          "type": "uint256"
        },
        {
          "indexed": false,
          "internalType": "string",
          "name": "message",
          "type": "string"
        },
        {
          "indexed": false,
          "internalType": "uint256",
          "name": "limit",
          "type": "uint256"
        }
      ],
      "name": "NewTodo",
      "type": "event"
    },
    {
      "inputs": [
        {
          "internalType": "string",
          "name": "_message",
          "type": "string"
        },
        {
          "internalType": "uint256",
          "name": "_limit",
          "type": "uint256"
        }
      ],
      "name": "createTodo",
      "outputs": [],
      "stateMutability": "nonpayable",
      "type": "function"
    },
    {
      "inputs": [],
      "name": "deleteTodo",
      "outputs": [],
      "stateMutability": "nonpayable",
      "type": "function"
    },
    {
      "inputs": [],
      "name": "gettotalTodo",
      "outputs": [
        {
          "internalType": "uint256",
          "name": "",
          "type": "uint256"
        }
      ],
      "stateMutability": "view",
      "type": "function"
    }
  ],
  "bytecode": "0x60806040523480156200001157600080fd5b506200004160405180606001604052806021815260200162000d15602191396200004760201b620002ba1760201c565b620001db565b620000e7816040516024016200005e9190620001b7565b6040516020818303038152906040527f41304fac000000000000000000000000000000000000000000000000000000007bffffffffffffffffffffffffffffffffffffffffffffffffffffffff19166020820180517bffffffffffffffffffffffffffffffffffffffffffffffffffffffff8381831617835250505050620000ea60201b60201c565b50565b60008151905060006a636f6e736f6c652e6c6f679050602083016000808483855afa5050505050565b600081519050919050565b600082825260208201905092915050565b60005b838110156200014f57808201518184015260208101905062000132565b838111156200015f576000848401525b50505050565b6000601f19601f8301169050919050565b6000620001838262000113565b6200018f81856200011e565b9350620001a18185602086016200012f565b620001ac8162000165565b840191505092915050565b60006020820190508181036000830152620001d3818462000176565b905092915050565b610b2a80620001eb6000396000f3fe608060405234801561001057600080fd5b50600436106100415760003560e01c8063d3c39b6214610046578063ece28c6c14610064578063f11fe10a14610080575b600080fd5b61004e61008a565b60405161005b919061060f565b60405180910390f35b61007e600480360381019061007991906107b0565b6100d5565b005b610088610260565b005b60006100cd6040518060400160405280601681526020017f5765206861766520256420746f74616c20746f646f2100000000000000000000815250600054610353565b600054905090565b60016000808282546100e7919061083b565b9250508190555061012e6040518060400160405280601681526020017f257320776176656420772f206d6573736167652025730000000000000000000081525033846103ef565b600160405180608001604052803373ffffffffffffffffffffffffffffffffffffffff16815260200184815260200142815260200183815250908060018154018082558091505060019003906000526020600020906004020160009091909190915060008201518160000160006101000a81548173ffffffffffffffffffffffffffffffffffffffff021916908373ffffffffffffffffffffffffffffffffffffffff16021790555060208201518160010190805190602001906101f3929190610553565b50604082015181600201556060820151816003015550503373ffffffffffffffffffffffffffffffffffffffff167ff346c20e12d2a0983cd4481f06b89c9462104b8b646649f110c6ae78980cb1d142848460405161025493929190610919565b60405180910390a25050565b60016000808282546102729190610957565b925050819055506102b86040518060400160405280600f81526020017f25732064656c65746520746f646f2100000000000000000000000000000000008152503361048e565b565b610350816040516024016102ce919061098b565b6040516020818303038152906040527f41304fac000000000000000000000000000000000000000000000000000000007bffffffffffffffffffffffffffffffffffffffffffffffffffffffff19166020820180517bffffffffffffffffffffffffffffffffffffffffffffffffffffffff838183161783525050505061052a565b50565b6103eb82826040516024016103699291906109ad565b6040516020818303038152906040527fb60e72cc000000000000000000000000000000000000000000000000000000007bffffffffffffffffffffffffffffffffffffffffffffffffffffffff19166020820180517bffffffffffffffffffffffffffffffffffffffffffffffffffffffff838183161783525050505061052a565b5050565b61048983838360405160240161040793929190610a1e565b6040516020818303038152906040527fe0e9ad4f000000000000000000000000000000000000000000000000000000007bffffffffffffffffffffffffffffffffffffffffffffffffffffffff19166020820180517bffffffffffffffffffffffffffffffffffffffffffffffffffffffff838183161783525050505061052a565b505050565b61052682826040516024016104a4929190610a63565b6040516020818303038152906040527f319af333000000000000000000000000000000000000000000000000000000007bffffffffffffffffffffffffffffffffffffffffffffffffffffffff19166020820180517bffffffffffffffffffffffffffffffffffffffffffffffffffffffff838183161783525050505061052a565b5050565b60008151905060006a636f6e736f6c652e6c6f679050602083016000808483855afa5050505050565b82805461055f90610ac2565b90600052602060002090601f01602090048101928261058157600085556105c8565b82601f1061059a57805160ff19168380011785556105c8565b828001600101855582156105c8579182015b828111156105c75782518255916020019190600101906105ac565b5b5090506105d591906105d9565b5090565b5b808211156105f25760008160009055506001016105da565b5090565b6000819050919050565b610609816105f6565b82525050565b60006020820190506106246000830184610600565b92915050565b6000604051905090565b600080fd5b600080fd5b600080fd5b600080fd5b6000601f19601f8301169050919050565b7f4e487b7100000000000000000000000000000000000000000000000000000000600052604160045260246000fd5b61069182610648565b810181811067ffffffffffffffff821117156106b0576106af610659565b5b80604052505050565b60006106c361062a565b90506106cf8282610688565b919050565b600067ffffffffffffffff8211156106ef576106ee610659565b5b6106f882610648565b9050602081019050919050565b82818337600083830152505050565b6000610727610722846106d4565b6106b9565b90508281526020810184848401111561074357610742610643565b5b61074e848285610705565b509392505050565b600082601f83011261076b5761076a61063e565b5b813561077b848260208601610714565b91505092915050565b61078d816105f6565b811461079857600080fd5b50565b6000813590506107aa81610784565b92915050565b600080604083850312156107c7576107c6610634565b5b600083013567ffffffffffffffff8111156107e5576107e4610639565b5b6107f185828601610756565b92505060206108028582860161079b565b9150509250929050565b7f4e487b7100000000000000000000000000000000000000000000000000000000600052601160045260246000fd5b6000610846826105f6565b9150610851836105f6565b9250827fffffffffffffffffffffffffffffffffffffffffffffffffffffffffffffffff038211156108865761088561080c565b5b828201905092915050565b600081519050919050565b600082825260208201905092915050565b60005b838110156108cb5780820151818401526020810190506108b0565b838111156108da576000848401525b50505050565b60006108eb82610891565b6108f5818561089c565b93506109058185602086016108ad565b61090e81610648565b840191505092915050565b600060608201905061092e6000830186610600565b818103602083015261094081856108e0565b905061094f6040830184610600565b949350505050565b6000610962826105f6565b915061096d836105f6565b9250828210156109805761097f61080c565b5b828203905092915050565b600060208201905081810360008301526109a581846108e0565b905092915050565b600060408201905081810360008301526109c781856108e0565b90506109d66020830184610600565b9392505050565b600073ffffffffffffffffffffffffffffffffffffffff82169050919050565b6000610a08826109dd565b9050919050565b610a18816109fd565b82525050565b60006060820190508181036000830152610a3881866108e0565b9050610a476020830185610a0f565b8181036040830152610a5981846108e0565b9050949350505050565b60006040820190508181036000830152610a7d81856108e0565b9050610a8c6020830184610a0f565b9392505050565b7f4e487b7100000000000000000000000000000000000000000000000000000000600052602260045260246000fd5b60006002820490506001821680610ada57607f821691505b60208210811415610aee57610aed610a93565b5b5091905056fea2646970667358221220e74b8498369044024d2b45999183026e7ed441663ce4b39480e6ba7e1770303b64736f6c6343000809003348657265206973206d792066696972737420736d61727420636f6e747261637421",
  "linkReferences": {},
  "deployedLinkReferences": {}
}